:020000040800F2
:1000000078070020010100080F1C0008251A0008CD
:100010000D1C0008A90200083F2200080000000093
:10002000000000000000000000000000AD200008FB
:10003000EF02000800000000111C0008AF200008BB
:100040001B0100081B0100081B0100081B01000820
:100050001B0100081B0100081B0100081B01000810
:100060001B0100081B0100081B010008AD0200086D
:100070001B010008B90200081B0100081B01000851
:100080001B0100081B0100086D0100081B0100088E
:100090001B0100081B0100081B0100081B010008D0
:1000A0001B0100081B0100081B0100081B010008C0
:1000B0001B0100085D2100081B0100081B0100084E
:1000C0001B0100081B0100081B010008151C00088B
:1000D0001B0100081B0100081B0100081B01000890
:1000E0001B0100081B0100081B010008DFF80CD0F1
:1000F00000F02AF800480047812200087807002015
:100100000648804706480047FEE7FEE7FEE7FEE7B1
:10011000FEE7FEE7FEE7FEE7FEE7FEE71521000843
:10012000ED000008D2B201E000F8012B491EFBD21D
:1001300070470022F6E710B513460A4604461946F2
:10014000FFF7F0FF204610BD064C074D06E0E068C3
:1001500040F0010394E8070098471034AC42F6D30E
:10016000FFF7C8FF3C2B00085C2B0008014800F09B
:100170004CB900002802002070B504460068816870
:10018000C943C9071CD1816821F00101816000F0D9
:100190007FFD05460FE000BF00F07AFD401B0228FE
:1001A00009D9A06A40F01000A062E06A40F00100A6
:1001B000E062012070BD20688068C043C007EBD0BA
:1001C000002070BD10B50146406A826A12F0500FDF
:1001D00005D0006A026BBDE8104008461047816AEE
:1001E00041F40071816201688968C1F342410729C5
:1001F0000CD1017B51B9816A21F480718162816ADD
:10020000C90403D4816A41F00101816200F0F0F871
:1002100010BD10B5406A816A41F040018162C16A37
:1002200041F00401C16200F0EFF810BD10B5406A62
:1002300000F0E4F810BD0000F8B500260446009672
:1002400000688168C943C90728D0816841F001016D
:100250008160134813490068B0FBF1F000E0401ED4
:1002600000900028FBD100F013FD054611E000BF0F
:1002700000F00EFD401B02280BD9A06A40F01000D0
:10028000A062E06A40F00100E06284F8246001208E
:10029000F8BD20688068C043C007E9D10020F8BDE0
:1002A0002400002040420F00FEE70000014800F05B
:1002B000D1BA000058020020014800F0CBBA00007B
:1002C000F402002030B590F840500124AC40C56BDA
:1002D0006C60046863604368102B036803D0996006
:1002E0000068C26030BD9A600068C16030BD704770
:1002F00070477047F8B50024009490F824202546F4
:10030000012A12D0012280F824204A681F23072ADC
:100310000DD20668776B521E02EB820293409F4318
:100320000B6893401F43776319E00220F8BD06680D
:100330000D2A0AD2376BD21F02EB820293409F43F1
:100340000B6893401F43376309E0F76A0D3A02EBED
:10035000820293409F430B6893401F43F7620A68F1
:10036000072306680A2A0AD3F7680A3A02EB420210
:1003700093409F438B6893401F43F76008E03769C1
:1003800002EB420293409F438B6893401F433761C7
:100390000A68102A01D0112A20D1124B02689A4211
:1003A00017D193681B0219D4936843F40003936038
:1003B0000968102912D10C490C4A0968B1FBF2F105
:1003C00001EB8101490000E0491E00910029FBD1A9
:1003D00004E0816A41F020018162012480F8245008
:1003E0002046F8BD002401402400002040420F00B8
:1003F0000149012048707047000000200149012098
:100400000870704700000020704710B5044600686F
:100410004168890626D50168890723D5A16AC906DE
:1004200003D4A16A41F40071A1628168C1F3424121
:10043000072910D1217B71B9416821F02001416069
:10044000A06A20F48070A062A06AC00403D4A06AED
:1004500040F00100A0622046FFF7CAFF21686FF05C
:10046000120008602068416809062ED50168490716
:100470002BD5A16AC90603D4A16A41F40051A16237
:100480008168C1F30231072909D04168490515D4B3
:100490008168C1F34241072910D1217B71B94168BC
:1004A00021F080014160A06A20F48050A062A06A1F
:1004B000C00503D4A06A40F00100A0622046FFF707
:1004C00018FF21686FF00C00086020684168490639
:1004D0000DD50068C0070AD0A06A40F48030A06241
:1004E000204600F093F821686FF00100086010BD0D
:1004F0002DE9F0414FF0000704003D467ED0A06A90
:10050000002628B9E66284F82460204600F080F8CE
:100510002046FFF731FEA16AC90600D420B1A06AC7
:1005200040F01000A06269E0A16A21F4885141F016
:100530000201A1626268E169237B0A4347EA430141
:100540000A43A1684FF48077B94209D0012907D046
:100550005FF0000194F814C0BCF1010F02D00AE072
:100560003946F7E7F3B1A36A43F02003A362E36AD5
:1005700043F00103E3622368D3F804C02CF4694C10
:100580004CEA010CC3F804C021688B68DFF870C026
:1005900003EA0C0313438B60A168B9420BD0012915
:1005A00009D00CE0DFF85CC0A3690CEB43330B43CC
:1005B00043F40061DFE7218A0D05A5F58015216868
:1005C000CB6A23F470032B43CB62216889680E4BFE
:1005D0001940914208D1E662A16A21F0020141F07E
:1005E0000101A162BDE8F081A06A20F0020040F0A4
:1005F0001000A062E06A40F00100E0620120F1E733
:10060000FDF7E1FF00E0FFFFFE0E1FFF7047000057
:1006100070B586B0002605460096019602960396B0
:1006200000681E49884237D11D49886940F400702E
:100630008861886900F400700490886940F00800BF
:1006400088618869694600F00800049001200090E4
:1006500003200190134800F01FFA144C1248C4E91B
:1006600000068020C4E902604000206180006061D3
:100670002020A0610002E061204600F095F908B159
:10068000FFF736FE2C62002211461220656200F050
:100690006BFB122000F05AFB06B070BD0024014035
:1006A00000100240000C01400800024058020020E7
:1006B0002DE9F047894604463B4900683B4F0E1D33
:1006C0009046884201D0B84207D1306810F4702FAC
:1006D00003D001252846BDE8F08794F824000128BE
:1006E0000CD0012084F824002046FFF7A5FD05006A
:1006F0004FF0000004D084F82400EBE70220EAE782
:10070000A16A40F60162914341F48071A1622168BF
:10071000B94218D1326812F4702F14D0A16A41F492
:100720008011A1623168490505D5A16A21F4005103
:1007300041F48051A162A16AC9040AD5E16A21F09D
:100740000601E16206E0A26A22F48012A262496810
:10075000E9E7E06284F82400216A15488862216A8A
:100760001448C862216A1448086321686FF00200C7
:1007700008602068816841F4807181602168434687
:100780004A464C31206A00F03DF920688168C1F387
:1007900042410729816803D041F48011816099E7C3
:1007A00041F4A001FAE700000024014000280140C4
:1007B000C50100082D0200081302000810B590F8CA
:1007C00021100024022903D00421816301243DE08B
:1007D00001680A6822F00E020A6001680A6822F0C5
:1007E00001020A601A4A0168914201D1012121E007
:1007F000174A1432914201D110211BE0144A2832C9
:10080000914201D1891515E0114A3C32914201D142
:1008100089140FE00E4A5032914202D14FF48031D8
:1008200008E00B4A6432914202D14FF4801101E09A
:100830004FF08071064A083A5160012180F821107A
:10084000002180F82010416B01B18847204610BD7F
:10085000080002402DE9F05FC16B0C6801680B686D
:10086000D0F840C0042202FA0CF2494DDFF824A16E
:10087000494E4A4FDFF828B1DFF828E122422CD058
:100880005A072AD50A68920603D40A6822F004029D
:100890000A600168A94201D1042219E0514501D141
:1008A000402215E0B14202D14FF4806210E0B9421B
:1008B00002D14FF480420BE0594502D14FF480221F
:1008C00006E0714502D14FF4800201E04FF08062F2
:1008D0002F4908394A60C16A3BE04FF0020808FA24
:1008E0000CF818EA040F4FF000094FF0010235D060
:1008F0005FEA837832D50B689B0605D40B6823F03A
:100900000A030B6080F821200168A94201D102226C
:1009100019E0514501D1202215E0B14202D14FF436
:10092000007210E0B94202D14FF400520BE0594579
:1009300002D14FF4003206E0714502D14FF40012AB
:1009400001E04FF00072124908394A6080F82090A7
:10095000816A00291AD0BDE8F05F0847082505FA2A
:100960000CF5254212D01B0710D50B6823F00E039F
:100970000B6090F84010C36B02FA01F1596082637A
:1009800080F8212080F82090016BE2E7BDE8F09F1D
:10099000080002401C0002403000024044000240B7
:1009A000580002406C00024030B528B308C8134913
:1009B00014221944B1FBF2F18900C163104981632B
:1009C000022141771A6843F6F0718A43D0E9001496
:1009D0002143D0E902452C43214304692143446962
:1009E000214384692143114319600021416301229D
:1009F00042770177084630BD012030BDF8FFFDBFCA
:100A00000000024070B5044690F82000002501283F
:100A10000CD0012084F8200094F821600020012EE1
:100A200006D084F820000225284670BD022070BD43
:100A3000022684F82160A0632068066826F001067B
:100A400006602046FFF73EFCE06A00282068016847
:100A500002D041F00E0106E021F00401016020689F
:100A6000016841F00A0101602068016841F001015C
:100A70000160D9E770B5044600F00AF90546601C2C
:100A800002D004480078044400F002F9401BA04260
:100A9000FAD370BD180000202DE9F84FDFF8B891A7
:100AA000002409F1040A0AF1040B23460F270BF175
:100AB000040EC9E00125A5402A40AA427DD1674E17
:100AC000D1F804C0ACEB0608B44532D014DCBCF15C
:100AD000030F3AD009DCBCF1000F2AD0BCF1010FA2
:100AE0001CD0BCF1020F31D11DE0BCF1110F17D0A9
:100AF000BCF1120F2AD119E0B8F5881F19D006DC15
:100B0000B8F5803F15D0B8F5801F1FD111E0B8F5BA
:100B1000001F0ED0B8F5041F18D10AE0CB6815E00D
:100B2000CB681B1D12E0CB6808330FE0CB680C3399
:100B30000CE08B682BB1012B4FF0080303D045610B
:100B400004E0042302E0056100E00023FF2A01D84D
:100B5000064601E000F104064FEA840501D9A5F13B
:100B60002005D6F8008007FA05FC28EA0C0803FAED
:100B700005F548EA0508C6F800804D68ED0062D525
:100B8000374DAE6946F00106AE61AD6924F003064B
:100B900005F001050095334D06EB050CDCF8085017
:100BA000A607360F07FA06F825EA0805DFF8B88029
:100BB000404503D14FF0000817E044E0DFF8AC8077
:100BC000404502D14FF001080FE0DFF8A480404516
:100BD00002D14FF0020808E0DFF89880404502D1CA
:100BE0004FF0030801E04FF0040808FA06F848EA5D
:100BF0000508CCF808804D68D9F80060ED034D4633
:100C000001D5164300E096432E604D68DAF8006087
:100C1000AD03554601D5164300E096432E604D685E
:100C2000DBF80060ED025D4601D5164300E0964317
:100C30002E604D68DEF80060AD02754601D51643A2
:100C400000E096432E60641C0D682A46E5407FF460
:100C500031AFBDE8F88F0000000401400000111022
:100C6000001002400000014000080140000C01405B
:100C70000010014000140140C2680A4201D04161E5
:100C80007047016170470AB1016170470904FBE7D1
:100C90000148806870470000180000200248816801
:100CA000027811448160704718000020074810B591
:100CB000016841F010010160032000F075F8002088
:100CC00000F006F800F024F8002010BD00200240DB
:100CD00070B50D4D04464FF47A712878B1FBF0F0F1
:100CE0000A490968B1FBF0F000F0F8FC48B9102C93
:100CF00007D200222146501E00F036F800206C601A
:100D000070BD012070BD00001800002024000020EC
:100D10000C4808B5816941F001018161816901F0E8
:100D200001010091C16941F08051C161C06900F0C9
:100D3000805000900448416821F0E06141F08061FA
:100D4000416008BD0010024000000140002809DB9E
:100D500000F01F02012191404009800000F1E020D5
:100D6000C0F8001170470000F0B40E4B1B680C4631
:100D7000C3F30223C3F10705042D00D90425191D6F
:100D8000072901D2002300E0DB1E012606FA05F147
:100D9000491E214099409E40761E16403143F0BCCA
:100DA00001F04EBA0CED00E0064900F007020868B9
:100DB0004FF6FF03184040EA0220034A1043086040
:100DC000704700000CED00E00000FA052DE9F84343
:100DD00005460078354CC00754D0E0690026C000B5
:100DE00008D4E06940F08050E061E069012600F03D
:100DF000805000902E480168C90512D401688046D1
:100E000041F480710160FFF743FF074605E000BF32
:100E1000FFF73EFFC01B642823D8D8F80000C005A8
:100E2000F6D5206A10F4407021D0A98801F44071F1
:100E300081421CD0206A1F49012220F440700A60C0
:100E400000220A602062C00711D0FFF721FF074689
:100E500041F2883808E000BFFFF71AFFC11B414587
:100E600002D90320BDE8F883206A8007F4D5206A00
:100E7000696820F44070084320621EB1E06920F0E8
:100E80008050E0612878800705D56068A96820F463
:100E90004040084360602878C00605D56068E9686E
:100EA00020F48000084360600020DBE7001002406F
:100EB00000700040400442422DE9F0470F46050013
:100EC00061D0434E306800F00700B84209D2306864
:100ED00020F0070038433060306800F00700B84267
:100EE00051D128683B4C810712D5400703D5606873
:100EF00040F4E06060602878000703D5606840F443
:100F0000605060606068A96820F0F000084360608D
:100F10002878C00728D06868012810D021680228E6
:100F200010D0890700292EDA616821F003010143FE
:100F30006160FFF7ADFE804641F288390DE021681F
:100F40008903EFE78901EDE7FFF7A2FEA0EB0801B7
:100F5000494502D90320BDE8F0876068696800F060
:100F60000C00B0EB810FEFD1306800F00700B84201
:100F70000BD9306820F0070038433060306800F04B
:100F80000700B84201D00120E5E72878400705D5E1
:100F90006068E96820F4E060084360602878000732
:100FA00006D56068296920F4605040EAC10060609D
:100FB00000F018F86168084AC1F30311515CC84099
:100FC0000649086006480068FFF782FE0020C2E775
:100FD00000200240001002402B2B000824000020BB
:100FE0001C00002012A185B00FC98DE80F0014A0CD
:100FF000144A006804905168134801F00C03042B54
:1010000010D0082B0ED1C1F38343C9031DF8030090
:101010000AD5516804AAC1F34041515C0A4A5043C1
:10102000B0FBF1F005B0704708494843FAE700000B
:1010300002030405060708090A0B0C0D0E0F101019
:10104000010200000010024000127A0000093D0079
:101050002DE9F84F040070D02078C04DC00749D06A
:101060006868C0F38100012807D06868C0F3810078
:10107000022809D16868C00306D52868800339D5DD
:1010800060680028E7D035E06068B0F5803F0BD09D
:1010900010B1B0F5A02F11D0286820F4803028605E
:1010A000286820F4802002E0286840F4803028601E
:1010B000606890B1FFF7ECFD06460AE0286840F44E
:1010C00080202860F0E700BFFFF7E2FD801B642866
:1010D00073D828688003F7D50CE0FFF7D9FD0646E2
:1010E00005E000BFFFF7D4FD801B6428F0D8286816
:1010F0008003F7D420789A4E80074FF001094FF013
:10110000000839D5686810F00C0F07D06868C0F384
:101110008100022809D16868C00306D428688007C6
:1011200014D52069012808D110E02069B0B1C6F8B3
:101130000090FFF7ADFD074605E00AE1FFF7A8FDC7
:10114000C01B0228C4D828688007F7D528686169C1
:1011500020F0F80040EAC10028600DE0C6F80080E9
:10116000FFF796FD074604E0FFF792FDC01B02283B
:1011700023D828688007F7D4207800072CD5794831
:10118000A169D9B1C0F80090FFF782FD074604E0DD
:10119000FFF77EFDC01B02280FD8686A8007F7D5CD
:1011A00071484FF4FA510068B0FBF1F0009000BFB5
:1011B0000098411E0091FAD20EE080E0C0F8008055
:1011C000FFF766FD074604E0FFF762FDC01B02283B
:1011D00075D8686A8007F7D42078400760D5E86939
:1011E0000027C00008D4E86940F08050E861E86951
:1011F000012700F0805000905C480168C90513D4B5
:101200000168834641F480710160FFF741FD824629
:1012100006E000BFFFF73CFDA0EB0A0064284ED8B3
:10122000DBF80000C005F5D5E06801280AD008B158
:10123000052813D0286A20F001002862286A20F0CF
:10124000040002E0286A40F001002862E06841F2F0
:10125000883B98B1FFF71CFD82460BE0286A40F0FE
:1012600004002862EEE700BFFFF712FDA0EB0A01C1
:1012700059455AD8286A8007F6D50CE0FFF708FDD3
:10128000824605E0FFF704FDA0EB0A0159454CD862
:10129000286A8007F6D41FB1E86920F08050E86121
:1012A000E06988B36968C1F38101022944D002284A
:1012B000C6F8608004D0FFF7EBFC044638E034E069
:1012C000FFF7E6FC074604E0FFF7E2FCC01B02283C
:1012D0002BD828688001F7D4206AB0F5803F05D16B
:1012E0006868A16820F4003008436860D4E9080108
:1012F0000843696821F4741108436860C6F8609077
:10130000FFF7C6FC044606E025E000BFFFF7C0FC7F
:10131000001B022809D828688001F7D51BE000BF10
:10132000FFF7B6FC001B022802D90320BDE8F88FA6
:1013300028688001F4D40EE00128F7D06868226A9A
:1013400000F48031914204D1616A00F47010884247
:1013500001D00120EAE70020E8E700000010024089
:1013600000004242800442422400002000700040FD
:101370007047000038B50446006842688168C94378
:101380004B0606D5CB0704D1D3435B0601D4216CB1
:1013900005E08B0708D4D3431B0605D4616C01B06C
:1013A0002046BDE8304008478B0601D54B0646D4A1
:1013B000D3439B0643D44B060AD494F85130032BF5
:1013C0003ED0636D43F004036365C3688368009394
:1013D000890609D4616D41F0010161658168009160
:1013E000016821F040010160606D002827D020686D
:1013F000416821F0E0014160012084F8510090072C
:1014000022D02068416821F003014160104DE06C5A
:1014100040B14563E06CFFF7D1F918B1606D40F061
:1014200040006065A06C002809D04563A06CFFF700
:10143000C5F9002803D0606D40F04000606538BDFC
:10144000C1688068009038BD2046FFF791FF38BD25
:10145000211C000870B5040005D00025A56294F891
:10146000510010B106E0012070BD84F850502046B4
:1014700000F02EF8022084F851002068016821F065
:1014800040010160D4E901010843D4E9031211438A
:10149000084361690843218B01F400710843E16945
:1014A0000843216A0843A16A084321680860A069CB
:1014B000042101EA1040216848602068C16921F4D4
:1014C0000061C1616565012084F85100002070BD94
:1014D00070B586B0002506460095019502950395E6
:1014E0000068224988423FD12149886940F48050F0
:1014F0008861886900F480500490886940F0040095
:10150000886188691B4C00F004000490A0200090C2
:10151000022001900320039069462046FFF7BCFAA1
:101520004020CDE90005694620460295FFF7B4FA50
:10153000124C114820601020C4E901058020C4E944
:1015400003056561A5612046E561FFF72DFA08B145
:10155000FEF7CEFEB4640022114623206662FFF738
:1015600003FC2320FFF7F2FB06B070BD0030014002
:10157000001002400008014030000240F402002048
:101580002DE9F84F044690F8500000271D461646F6
:10159000894601280DD04FF0010B84F850B0FFF7B9
:1015A00077FB804694F85100BA46012804D0022700
:1015B0008EE00220BDE8F88FB9F1000F7DD0002E3B
:1015C0007BD0032084F85100C4F854A0C4F83090B4
:1015D000A686E686C4F838A0A4F83CA0A4F83EA0ED
:1015E000C4F844A0C4F840A0A068B0F5004F04D1EE
:1015F0002068016841F48041016020680168490663
:1016000003D4016841F040010160E068B0F5006F6B
:10161000606803D030B3012E24D040E008B1012E21
:101620001CD1206B21680088C86006E020688168B2
:10163000890709D5216B0988C160206B801C206354
:10164000E08E401EE08609E0FFF722FBA0EB0800D9
:10165000A84202D3681C01D031E07DB3E08E00289F
:10166000E4D11FE0206B21680078087306E0206851
:101670008168890709D5216B09780173206B401CAB
:101680002063E08E401EE08609E0FFF701FBA0EB3F
:101690000800A84202D3681C01D010E075B1E08EAA
:1016A0000028E4D142462946204600F0C1FA08B19C
:1016B00020206065A06820B107E008E0FFE703276D
:1016C00006E02068C16880680090606D00B1012765
:1016D00084F851B084F850A038466BE710B5401E2E
:1016E000B0F1807F01D3012010BD4FF0E024606194
:1016F0000F21601700F0A4FD0020A06107202061E9
:10170000002010BD7047704770B590F83C20012A4A
:1017100019D0012400F83C4F0222427050F83C3CA2
:101720005A689D6822F070060A684968324325F0BD
:10173000800529435A6050F83C2C91604470002188
:101740000170084670BD022070BD10B5040003D0C2
:1017500094F83D0010B107E0012010BD002084F88E
:101760003C00204600F00CF8022084F83D00211DCA
:10177000206800F0F9FC012084F83D00002010BD35
:1017800008B500680B49884212D10B48C16941F085
:101790000201C161C069002200F002000090114600
:1017A0001D20FFF7E1FABDE808401D20FFF7CEBA83
:1017B00008BD000000040040001002400168CA6833
:1017C00042F00102CA600068816801F00701062941
:1017D00003D0016841F0010101600020704770B53D
:1017E000044690F83C00012817D0012584F83C50AD
:1017F000022084F83D002068826822F0770222F4FB
:101800007F4282600868502830D00DDC20284DD0FF
:1018100005DC98B310283BD148E0022070BD302889
:1018200044D0402834D139E0602828D0702806D030
:10183000B0F5805F2CD0B0F5005F29D10AE0CB680D
:10184000D1E90121206800F0C5FC2068816841F0E1
:10185000770109E0CB68D1E90121206800F0BAFCEA
:101860002068816841F48041816011E0CA6849685C
:10187000206800F0C1FC5021206807E016E0CA682B
:101880004968206800F0C9FC6021206800F0ACFCC9
:1018900084F83D50002084F83C0070BDCA68496857
:1018A000206800F0A9FC40212068EFE7226801468B
:1018B0001046EBE7704770B50446006801694FF0C9
:1018C0000005C943890715D4C168C943890711D4E4
:1018D000E91E016101202077206880698007204689
:1018E00002D0FFF7E7FF04E000F098F8204600F090
:1018F00096F8257720680169C943490717D4C1685C
:10190000C943490713D46FF0040101610220207715
:101910002068806910F4407F204602D0FFF7CAFF9C
:1019200004E000F07BF8204600F079F82577206885
:101930000169C943090716D4C168C943090712D40C
:101940006FF008010161042020772068C0698007DA
:10195000204602D0FFF7AEFF04E000F05FF820461B
:1019600000F05DF8257720680169C943C90617D4DE
:10197000C168C943C90613D46FF010010161082082
:1019800020772068C06910F4407F204602D0FFF71E
:1019900091FF04E000F042F8204600F040F825777F
:1019A00020680169C943C90708D1C168C943C9078B
:1019B00004D1891E0161204600F032F820680169D7
:1019C000C943090609D4C168C943090605D46FF0A3
:1019D000800101612046FFF795FE20680169C94337
:1019E000490609D4C168C943490605D46FF04001CE
:1019F0000161204600F015F820680169C943890695
:101A00000BD4C168C943890607D46FF02001016176
:101A10002046BDE87040FFF776BE70BD7047704746
:101A200070477047FEE700003EB500241048009460
:101A3000019402940D4984600125016005730475C9
:101A40000561E9044460C161FEF752FD08B1FEF78B
:101A50004FFC0820CDE90005694602940448FEF7D2
:101A600049FC002801D0FEF743FC3EBD00240140A4
:101A7000280200200D4808B5416941F0010141618B
:101A80004069002200F00100009011460B20FFF792
:101A90006BF90B20FFF75AF9002211460D20FFF7D2
:101AA00063F9BDE808400D20FFF750B9001002406F
:101AB0002DE9F04385B00024254800940194029458
:101AC0000394816941F010018161816901F0100185
:101AD0000491816941F020018161816901F0200157
:101AE0000491816941F004018161816901F004017F
:101AF0000491816941F0080181618069DFF85480B7
:101B000000F00800049000220D214046FFF7BBF8CA
:101B1000DFF844904FF44077002239464846FFF7FB
:101B2000B2F80D2001250226CDE90005CDE90246D7
:101B300069464046FEF7B0FF00970396CDE9015491
:101B400069464846FEF7A8FF05B0BDE8F0830000EF
:101B50000010024000080140000C0140104810B580
:101B60000E4901604FF48271416000218160C160C3
:101B70004FF400720161C0E905120822C0E9072193
:101B8000416281620A21C162FFF764FC002803D030
:101B9000BDE81040FEF7ACBB10BD000000300140B6
:101BA0009C02002010B586B00024174800940194D0
:101BB00002940394049413490594C0E9001440F27C
:101BC000DB51C0E9024104618461FFF7BEFD08B149
:101BD000FEF78EFB4FF48050009069460A48FFF7ED
:101BE000FEFD08B1FEF784FB2020CDE9040404A922
:101BF0000548FFF789FD002801D0FEF779FB06B004
:101C000010BD00000004004038030020FEE77047CC
:101C1000704700000148FFF7ADBB00009C020020A8
:101C200010B5406A0021C187C186FFF7A1FB10BD36
:101C300038B50B46009204460022802100F008F8D7
:101C4000002804D0606D40F020006065032038BD9E
:101C50002DE9F0411D4617460E460446DDF8188072
:101C600008E0681C06D0FFF713F8A0EB0800A842B4
:101C70000BD255B12068806836EA000030D00020D1
:101C8000B842EED10020BDE8F0812068416821F023
:101C9000E00141606068B0F5827F0BD1A068B0F5CB
:101CA000004F02D0B0F5806F04D12068016821F0A8
:101CB00040010160A06AB0F5005F09D120680168A9
:101CC00021F4005101602068016841F40051016075
:101CD000012084F85100002084F850000320D2E74E
:101CE0000120CDE72DE9FE4F05461A480127DDF812
:101CF00038B09946144688460760DFF85CA0DEB22B
:101D00001FE0BAF90630711999420DDBC9F30721BA
:101D100001EB08031FFA83F8BAF9040000254144D7
:101D2000814211DA202A0BD00D98CDE9010B0C98D5
:101D300000904B464146284600F04EF9701985B296
:101D4000641C2278002ADCD10248001F0760BDE82D
:101D5000FE8F0000140801400C0000202DE9F04126
:101D600010F8015B044617E0207800F07DF96078F8
:101D7000A41C00F0800730F0800604D031462046D5
:101D800000F084F934443FB114F8010BFF2801D16D
:101D90004FF4FA70FEF76EFE6D1EEDB2E4D2BDE8B0
:101DA000F08100002DE9F8431546224A1C46089FA1
:101DB000B2F9063098423BDAB2F90420914237DAA0
:101DC0004619761E9E4201DB1B1A9DB20B195B1E43
:101DD000934201DB521A94B2174A012616600A197F
:101DE000521ED3B24219521ED2B2C9B2C0B200F0D2
:101DF0007DF8380A8DF8000010498DF801707002E6
:101E0000086027464FF0FF380DE02C4607E04346B8
:101E1000022269460A48FFF7B3FB641EA4B2002CF5
:101E2000F5D17F1EBFB2002FEFD10348001F06601F
:101E3000BDE8F8830C00002014080140100C01409C
:101E40009C02002008B5009004488188C0888BB2AD
:101E500082B200210846FFF7A5FF08BD0C00002054
:101E600070B586B000251D48009501950295039533
:101E7000816941F0080181618069194E00F0080014
:101E800048F2013404902A4621463046FEF7FBFE14
:101E90000220CDE9025000940124694601943046A5
:101EA000FEF7FAFD0F48046085150D4814300560F3
:101EB0001420FEF7DFFD0A48103005600A48FFF7DE
:101EC0004DFF09483B30FFF749FF07484830FFF70F
:101ED00045FF0448001F046006B070BD00100240BA
:101EE000000C014014080140B82A0008F8B5044667
:101EF0001D4616460F462A2000F0B6F82146104C23
:101F000000200090607801448DF8011030448DF875
:101F100003000421684600F0B9F82B2000F0A4F873
:101F2000A07839188DF8011028448DF80300042199
:101F3000684600F0ABF82C2000F096F8F8BD0000E1
:101F40000C0000202DE9F843214C224900F0030049
:101F500020704FF00108C1F80080362000F084F8AE
:101F600021780025802604F10800A02731B101293D
:101F70000CD0022914D003290CD11BE0017842783F
:101F8000C078114301438DF800100CE0417812E055
:101F90006570A5700F49091FC1F80080BDE8F8837E
:101FA000C0788DF800000121684600F06FF8E680E7
:101FB000A780EDE701788278C078114301438DF85E
:101FC00000100121684600F061F8E780A680DFE795
:101FD0000C000020140801400FB42DE9FF5F4A1ED9
:101FE000C3F307263244D4B2DFB2421EDDE913A99F
:101FF0003A44D2B2C9B2C0B22346FFF777FF0025F8
:102000002CE010981299203800FB0650002431F87B
:1020100010804FEA1A2002900AF0FF0001904FEA68
:10202000192009F0FF0B009015E000BF08FA04F03A
:10203000000406D502988DF80C0001988DF80D006B
:1020400004E000988DF80C008DF80DB0022103A873
:1020500000F01CF8641CA742E8D86D1CAE42D0D832
:10206000BDE8FF1F5DF814FB01B506494FF4007091
:1020700008604FF0FF33012269460348FFF780FAFA
:1020800008BD0000140C01409C020020054B4FF4D9
:1020900000721A608AB201464FF0FF330248FFF720
:1020A0006FBA0000100C01409C0200207047FEF740
:1020B000F5BD30B593B028216846FEF73AF81421F3
:1020C0000AA8FEF736F8002401200F94109411940A
:1020D000010412948DE8130004904FF4E010CDE950
:1020E0000810022507956846FEF7B2FF0F20CDE9DC
:1020F0000A056802CDE90C4002210AA80E94FEF7F9
:10210000DBFEA80311900F950FA8FEF75FFE13B03A
:1021100030BD00000D48016841F0010101604168D7
:102120000B4A1140416001680A4A11400160016890
:1021300021F480210160416821F4FE0141604FF4E7
:102140001F0181600449C00308607047001002400D
:102150000000FFF8FFFFF6FE08ED00E00148FFF782
:10216000AABB000038030020F0B50268164B174CDC
:10217000174D4FF08047984205D0B84203D0A04297
:1021800001D0A84203D122F070064A683243984237
:1021900005D0B84203D0A04201D0A84203D122F416
:1021A0004074CA6822434C6922F0800222430260D4
:1021B0008A68C2620A688262984201D10969016331
:1021C00001214161F0BD0000002C014000040040ED
:1021D0000008004010B5846842EA032224F47F44DA
:1021E0000A432243826010BD826822F070020A43D3
:1021F00042F007018160704710B5036A046A24F059
:1022000001040462846924F0F00444EA021423F017
:102210000A020A438461026210BD10B5036A23F00A
:10222000100303628369046A23F4704343EA0232B1
:1022300024F0A00343EA01118261016210BDFEE7B0
:102240000907090E002804DB00F1E02080F80014E3
:10225000704700F00F0000F1E02080F8141D704777
:1022600002E008C8121F08C1002AFAD1704770475F
:10227000002001E001C1121F002AFBD170470000BD
:102280000EB5FEF713FD244D00242C70234E347040
:102290002349204621F81040401C80B2FF28F9D97C
:1022A000FFF707FFFFF704FCFFF7E4FBFFF7BCFBBA
:1022B000FFF754FCFFF776FC4FF480721849194879
:1022C000FEF7F6F91848FFF779FAFFF7C9FD012084
:1022D000FFF738FE0020FFF7B5FD4FF47840CDE959
:1022E0000104124812A241680091002103680846C7
:1022F000FFF7F8FC144F287828B104213846FEF780
:10230000BBFC2C70F7E730780028F4D00821384661
:10231000FEF7B2FC3470EEE7000000200100002060
:10232000280000202802002038030020040000209C
:102330005374617274696E67206D61696E206C6F91
:102340006F702E2E2E0000000008014000000000DB
:10235000000000000000000000000000000000007D
:1023600000100010001000100010001000000010FD
:1023700000000000002800280028000000000000E5
:10238000000000000000000000240024007C002465
:102390000048007C0048004800000000003800545D
:1023A00000500038001400540054003800100000A1
:1023B0000020005400580030002800540014000889
:1023C0000000000000100028002800100034004821
:1023D0000048003400000000001000100010000051
:1023E00000000000000000000000000000080010D5
:1023F0000020002000200020002000200010000805
:10240000002000100008000800080008000800086C
:10241000001000200010003800100028000000000C
:10242000000000000000000000000000001000108C
:10243000007C001000100000000000000000000000
:10244000000000000000000000000010001000105C
:102450000000000000000000000000380000000044
:10246000000000000000000000000000000000006C
:10247000000000100000000000080008001000101C
:102480000010001000200020000000000038004470
:1024900000440054004400440044003800000000A0
:1024A000001000300050001000100010001000104C
:1024B0000000000000380044004400040008001040
:1024C0000020007C000000000038004400040018D8
:1024D0000004000400440038000000000008001858
:1024E000002800280048007C0008000800000000C8
:1024F000007C0040004000780004000400440038E4
:10250000000000000038004400400078004400440F
:102510000044003800000000007C000400080010A7
:1025200000100020002000200000000000380044BF
:10253000004400380044004400440038000000001B
:102540000038004400440044003C000400440038CB
:10255000000000000000000000100000000000006B
:10256000000000100000000000000000000000104B
:10257000000000000000001000100010000000002B
:10258000000C003000400030000C00000000000093
:10259000000000000000007C0000007C0000000043
:1025A0000000000000000000006000180004001897
:1025B0000060000000000000003800440004000833
:1025C000001000100000001000000000003800445F
:1025D000004C0054005C0040004000380000000047
:1025E00000100028002800280028007C0044004437
:1025F00000000000007800440044007800440044DB
:102600000044007800000000003800440040004012
:102610000040004000440038000000000070004806
:1026200000440044004400440048007000000000E2
:10263000007C00400040007C004000400040007CE6
:1026400000000000007C0040004000780040004096
:1026500000400040000000000038004400400040FE
:10266000005C0044004400380000000000440044C6
:102670000044007C0044004400440044000000008A
:10268000003800100010001000100010001000387A
:102690000000000000040004000400040004000422
:1026A0000044003800000000004400480050006072
:1026B0000050004800480044000000000040004076
:1026C00000400040004000400040007C000000004E
:1026D0000044006C006C005400440044004400447A
:1026E0000000000000440064006400540054004CEA
:1026F000004C004400000000003800440044004446
:102700000044004400440038000000000078004409
:1027100000440044007800400040004000000000F9
:102720000038004400440044004400440054003891
:102730000004000000780044004400440078004891
:102740000048004400000000003800440040003011
:10275000000800040044003800000000007C001065
:102760000010001000100010001000100000000009
:102770000044004400440044004400440044003845
:102780000000000000440044004400280028002805
:1027900000100010000000000044004400540054E9
:1027A0000054006C002800280000000000440028AD
:1027B000002800100010002800280044000000003D
:1027C00000440044002800280010001000100010F1
:1027D00000000000007C0004000800100010002031
:1027E0000040007C000000000018001000100010E5
:1027F0000010001000100010001000180020002031
:102800000010001000100010000800080000000078
:102810000030001000100010001000100010001018
:1028200000100030001000280028004400000000C4
:102830000000000000000000000000000000000098
:102840000000000000000000000000FE002000105A
:102850000000000000000000000000000000000078
:102860000000000000380044003C0044004C0034EC
:102870000000000000400040005800640044004494
:102880000064005800000000000000000038004410
:102890000040004000440038000000000004000434
:1028A0000034004C00440044004C003400000000A0
:1028B0000000000000380044007C00400044003864
:1028C00000000000000C0010007C00100010001040
:1028D0000010001000000000000000000034004C58
:1028E00000440044004C00340004007800400040E4
:1028F000005800640044004400440044000000000C
:1029000000100000007000100010001000100010F7
:102910000000000000100000007000100010001007
:1029200000100010001000E000400040004800507F
:1029300000600050004800440000000000700010DB
:102940000010001000100010001000100000000027
:10295000000000000078005400540054005400545B
:102960000000000000000000005800640044004423
:102970000044004400000000000000000038004453
:102980000044004400440038000000000000000043
:1029900000580064004400440064005800400040B7
:1029A000000000000034004C00440044004C00349F
:1029B00000040004000000000058006400400040D3
:1029C000004000400000000000000000003800440B
:1029D0000030000800440038000000000020002003
:1029E00000780020002000200020001800000000D7
:1029F000000000000044004400440044004C003447
:102A000000000000000000000044004400280028EE
:102A100000280010000000000000000000540054D6
:102A20000054006C00280028000000000000000096
:102A3000004400280010001000280044000000009E
:102A4000000000000044004400280028001000108E
:102A50000010006000000000007C00080010002052
:102A60000040007C00000000001800100010001062
:102A700000200020001000100010001800100010AE
:102A800000100010001000100010001000100010C6
:102A900000300010001000100008000800100010A6
:102AA000001000300000000000000074004C000026
:102AB00000000000000000000F0180961180FFB1AF
:102AC00003012C2DB203012C2DB306012C2D012C5A
:102AD0002DB40107C003A20284C101C5C2020A00CD
:102AE000C3028A2AC4028AEEC5010E20003601C044
:102AF0003A0105022A040000007F2B040000007F39
:102B000004E010021C07123732292D29252B390029
:102B1000010310E110031D07062E2C292D2E2E3740
:102B20003F0000021013800A2980640000000000AA
:102B30000000000102030406070809005C2B0008DE
:102B4000000000202800000060220008842B0008FC
:102B5000280000205007000070220008000000003C
:102B6000070A00004C23000800000000A0008000BD
:102B70004080200001000000100000000000000064
:042B80000024F40039
:04000005080000ED02
:00000001FF
