:020000040800F2
:10000000800F002001010008C72E0008DB2C00082B
:10001000C52E000885140008EF3500080000000018
:100020000000000000000000000000005D34000837
:10003000CB14000800000000C92E00085F3400083F
:100040001B0100081B0100081B0100081B01000820
:100050001B0100081B0100081B0100081B01000810
:100060001B0100081B0100081B010008891400087F
:100070001B010008951400081B0100081B01000863
:100080001B0100081B010008491300081B010008A0
:100090001B0100081B0100081B0100081B010008D0
:1000A0001B0100081B0100081B0100081B010008C0
:1000B0001B0100080D3500081B0100081B0100088A
:1000C0001B0100081B0100081B010008CD2E0008C1
:1000D0001B0100081B0100081B0100081B01000890
:1000E0001B0100081B0100081B010008DFF80CD0F1
:1000F00000F040F800480047F5390008800F002064
:100100000648804706480047FEE7FEE7FEE7FEE7B1
:10011000FEE7FEE7FEE7FEE7FEE7FEE7C534000880
:10012000ED000008D2B201E000F8012B491EFBD21D
:1001300070470022F6E710B513460A4604461946F2
:10014000FFF7F0FF204610BD30B50B4601460020FA
:100150002022012409E021FA02F59D4205D303FA89
:1001600002F5491B04FA02F52844151EA2F101020A
:10017000F1DC30BD064C074D06E0E06840F00103BD
:1001800094E8070098471034AC42F6D3FFF7B2FF6B
:10019000D4610108F461010810B50023B3EB920F9C
:1001A00043D04FEA920C00BF03885C420FFA83FEF3
:1001B000B3F5004F08BF47F6FF74BEF1000FC8BF8C
:1001C0001C460C8043885C420FFA83FEB3F5004F57
:1001D00008BF47F6FF74BEF1000FC8BF1C464C8035
:1001E00083885C420FFA83FEB3F5004F08BF47F6E1
:1001F000FF74BEF1000FC8BF1C468C80C38800F19D
:10020000080E5C4218B2B3F5004F08BF47F6FF7402
:100210000028C8BF1C4601F10803CC80BCF1010CCA
:1002200070461946C0D11946704612F0030208BF45
:1002300010BD00BF30F8023B0FFA83FC5C42B3F5FF
:10024000004F08BF47F6FF74BCF1000FC8BF1C4643
:10025000013A21F8024BEDD110BD00002DE9F0412B
:10026000F9B100236FF0010C02EB430E32F813508A
:10027000BEF802400CEA55050CEA540430F805803B
:10028000075B00EB050E0619475320F80480023384
:100290007488BEF802509BB28B42AEF80240758063
:1002A000E2D3BDE8F08170B51D4603880446012AFB
:1002B0000E460ED1FF2B1BDDB3F5806F26DBB3F5A9
:1002C000805F3BD0B3F5006F32D0B3F5806F35D08F
:1002D0004BE0FF2B13DDB3F5806F1EDBB3F5805FC2
:1002E0003DD0B3F5006F34D0B3F5806F37D03CE02C
:1002F0003F2B19DC102B21D0202B19D035E03F2BC0
:1003000023DC102B2BD0202B23D02EE0B3F5807FC5
:1003100014D0B3F5007F0BD027E0B3F5807F1ED05B
:10032000B3F5007F15D020E0402B07D0802B1CD1E7
:1003300062683046194600F021F816E062683046DF
:100340001946012300F082F90FE0402B07D0802BE3
:100350000BD162683046194600F098F805E06268F3
:1003600030461946012300F003FC35B1A189A2688B
:100370003046BDE87040FFF771BF70BD2DE9F04F0A
:1003800081B08246002091460C46B0EB510F4FEAF7
:10039000510B6BD00AEB8B0C02215A46009400BF24
:1003A0000CEB01040AEB010634F9020C36F9025C8D
:1003B0004FEA60086F1008EB650509EB01036D0853
:1003C00033F9023C39F901E026F8025C3CF901609E
:1003D0003AF901504FEA6608A7EB60006F1008EB8E
:1003E0006505A7EB66066D082AF8015000FB03F5CA
:1003F00073431B0C00FB0EF02D0C06FB0EF703EBFA
:100400001040A5EB17452CF80100013A01F1040159
:1004100024F8025CC4D1504659464A46022300F0F3
:1004200015F9009859460AEB40004A46022300F0AD
:100430000DF9BBF1000F16D00AF1040030F8041CCE
:1004400030F8022C03884788490052005B007F0087
:1004500020F8041C20F8022C03804780BBF1010B1C
:1004600000F10800EAD101B0BDE8F08F50465946CE
:100470004A46022300F0EAF80AEB440059464A468D
:10048000022301B0BDE8F04F00F0E0B82DE9F04FD5
:1004900081B08246002091460C46B0EB510F4FEAE6
:1004A000510B6BD00AEB8B0C02215A46009400BF13
:1004B0000CEB01040AEB010634F9020C36F9025C7C
:1004C0004FEA60086F1008EB650509EB01036D0842
:1004D00033F9023C39F901E026F8025C3CF901608D
:1004E0003AF901504FEA6608A7EB60006F1008EB7D
:1004F0006505A7EB66066D082AF8015000FB03F5B9
:10050000734306FB0EF71B0C00FB0EF03F0CA3EB36
:10051000104007EB15452CF80100013A01F10401E8
:1005200024F8025CC4D1504659464A46022300F0E2
:100530001FFB009859460AEB40004A46022300F090
:1005400017FBBBF1000F16D00AF1040030F8041CB1
:1005500030F8022C03884788490052005B007F0076
:1005600020F8041C20F8022C03804780BBF1010B0B
:1005700000F10800EAD101B0BDE8F08F50465946BD
:100580004A46022300F0F4FA0AEB440059464A4670
:10059000022301B0BDE8F04F00F0EABA2DE9F04FB8
:1005A00081B086463EF802CBA1F101090024B4EBEC
:1005B000990F36D0009301244B464FEA990A64F311
:1005C00001030027002400BF3EF917B00EEB4705DA
:1005D0000FFA8CF65E45B8BFDC46B8BF7C1CB5F997
:1005E00002600FFA8CFBB5F90480B5F90650B345EB
:1005F000B8BFB4460FFA8CF6B8BFBC1C4645B8BFAE
:10060000C4460FFA8CF6B8BFFC1CAE4207F10407D3
:10061000BCBFAC463C46BAF1010AD5D100EB430E53
:10062000009B19F003000BD0404200BF3EF9026B63
:100630000FFA8CF5B542BCBFB4460C180130F5D3A7
:10064000A2F800C01C6001B0BDE8F08F2DE9F04FAA
:1006500098B008918F0803EB430189001291D900EB
:1006600011919900139702F10209109107EB4701CC
:10067000841CF800DDF84C8089000E90B800CE464E
:10068000CB46029204930F910D9000940E99179708
:10069000214431F9025C34F9020C34F93870B4F9B0
:1006A0000020AE1083104FEAA70C06EBA0004FEA23
:1006B000A20A169100F30F060CEBA200A3EBA50211
:1006C00000F30F0002F30F01AAEBA702149102F34B
:1006D0000F010F9A15910D9904EB020C04EB010A1E
:1006E0004D463CF9029C3AF9027CA15E34F928306F
:1006F0004FEAA909891009EBA70707F30F0701EBD8
:10070000A301A94601F30F01330447F34E0505EB9E
:10071000634324F8023C030441F34E0505EB6343B5
:1007200035B23EB200B209B22380AB1B401A03F3CC
:100730000F0300F30F003EF9021CBEF900501BB27C
:1007400003FB01F600B200FB1566484303FB0500FE
:10075000310C000C3AF9023C34F928502AF8021CFA
:1007600024F828003CF9020CA15E9B10AD10A3EB0D
:10077000A000A5EBA10100F30F0001F30F01149BF2
:1007800009B21BB2CF18E24607F30F0C159D00B259
:100790002EB2351A591A304405F30F0501F30F0133
:1007A00000F30F0039F9023CB9F9006009B201FB0E
:1007B00003F700B200FB1677584301FB0600169BB7
:1007C000390C000C23F8021C24F838003BF9020C09
:1007D000BBF900100FFA8CF32EB203FB00F7704345
:1007E00003FB010006FB1177000CA0521298390C94
:1007F00083441198179F86441098013F814404F167
:1008000004042AF8021C7FF441AF089FDDF84CE095
:10081000142F4FEA1710C0F01181DDF800A03946FF
:1008200001917146864604980C4680000490AEF112
:10083000010003904FEA8E000A900EEB4E008D00EF
:100840004FEA80084FEACE0200230021CDF81CA019
:10085000CDE90B541392CDF8248000BF0498BB421D
:1008600008440693059080F0D4804F008A0001EB85
:1008700041010298490041F0010330F9111030F9AB
:100880001330119142F0010130F9111012931091BF
:1008900030F91210139A0F9147F0010130F911103D
:1008A00030F917000E910D90DDE9060A17900AEB5A
:1008B00002003AF9027CBAF9006030F9025C3AF9B8
:1008C0003E301690EA1998197F1BF31A02F30F02B3
:1008D00000F30F0007F30F0903F30F0115910A99B5
:1008E0000AEB08040AEB010C3CF9023C474634F9D8
:1008F000028C71463AF92EE03AF907B04344254696
:10090000149403F30F030BEB0E043E46884604F3E6
:100910000F04110442F34E0243F34E0707EB61410B
:1009200049082AF8021C010440F34E0044F34E0724
:1009300007EB61414908AAF8001019040F9F109BAA
:10094000A2EB61412204A0EB624001FB07F2594394
:1009500000FB132200FB0710110C000C3CF9022CC9
:100960002CF8021C3AF928102AF8280035F9020C54
:100970003AF90630101AC91ADDF830B000F30F004A
:1009800001F30F0149F34E030F0441F34E01159E8D
:100990004FEA094246F34E05A3EB6743070440F3D1
:1009A0004E00DDF8349001EB62413204DDF838E0AE
:1009B00000EB624003FB09F2119C00FB1E22DDF8F4
:1009C00048C0A5EB674701FB04F5169E120C07FB18
:1009D0001C5526F8022C149E2A0C00FB09F026F860
:1009E000022C03FB0E0007FB04F201FB0C21000CA0
:1009F0002AF83800080C09990B9D2AF8010017986D
:100A0000089F139A5844C6468846B842AA44FFF441
:100A10004DAF0798069B0430079003980133059962
:100A200083427FF61BAF0198DDF800A050284FEA03
:100A300090014FEA9E00BFF4F3AE01E0DDF800A0A4
:100A4000A7EB0E0112914FEA8E01119100EB4001CC
:100A500089001091DDF840908100C0004FF0000B3C
:100A60000F911790179A3AF9020C0AEB0201BAF9A2
:100A70000040169131F9021C3AF902700A183B192C
:100A8000401A02F30F0203F30F0300F30F00149058
:100A9000E01B00F30F0015900F980AEB09060AEB14
:100AA000000737F9025C36F9028C71463AF900E02A
:100AB0003AF909C04544139605F30F050CEB0E04F3
:100AC0008E4604F30F04160442F34E0245F34E0122
:100AD00001EB66412AF8021C190443F34E0344F368
:100AE0004E0606EB6141AAF800102904A2EB614111
:100AF0002204A3EB6242139C37F9023C27F8021C44
:100B00003AF900102AF8002034F9022C3AF9097059
:100B10009A1AC91B02F30F0201F30F01149D0F046F
:100B200045F34E0341F34E011698A3EB674320F8BB
:100B3000023C2B04159801EB634140F34E0742F34E
:100B40004E0324F8021C0004179903EB60402AF8B6
:100B500001001004A7EB60402AF809001298F34442
:100B60008345119882447FF67DAF18B0BDE8F08FC1
:100B70002DE9F04F99B008918F0803EB43018900EC
:100B80001291D90011919900139702F10209109165
:100B900007EB4701841CF800DDF84C8089000E90BB
:100BA000B800CE46CB46029204930F910D9000946C
:100BB0000E991897214431F9025C34F9020C34F98A
:100BC0003870B4F90020AE1083104FEAA70C06EB82
:100BD000A0004FEAA20A179100F30F060CEBA20047
:100BE000A3EBA50200F30F0002F30F01AAEBA7028B
:100BF000159102F30F0116910D99DDF83CC004EB3D
:100C0000010A04EB0C014A4631F9029C3AF9027CD4
:100C1000149134F90C1034F928304FEAA9098910DD
:100C200009EBA70707F30F0701EBA30101F30F017E
:100C3000330447F34E0505EB634324F8023C0304F9
:100C400041F34E0505EB634335B23EB200B209B243
:100C50002380AB1B401A03F30F0300F30F003EF990
:100C6000021CBEF900501BB203FB01F600B200FBF0
:100C70000566484303FB1500310C000C3AF9023CB1
:100C80002AF8021CDDF850A034F9285024F8280076
:100C90003AF9020C34F90C109B10AD10A3EBA00034
:100CA000A5EBA101914600F30F0001F30F01159A86
:100CB00009B213B25F1A07F30F07169A00B216B201
:100CC00085191944301A05F30F0501F30F0100F3DC
:100CD0000F0039F9023CB9F9006009B200B201FB1A
:100CE00003F200FB0622584301FB1600110C179A71
:100CF000000C22F8021C24F838003BF9020CBBF966
:100D000000102AB23BB203FB00F5504303FB110075
:100D100002FB0155000C24F80C001298189F834424
:100D20001198290C86441098013F814404F1040471
:100D30002AF8021C7FF43CAF089FDDF84CE0142F2A
:100D40004FEA1710C0F01281DDF800A0394600BF4D
:100D500001917146864604980C4680000490AEF1DD
:100D6000010003904FEA8E000A900EEB4E008E00B9
:100D70004FEA80084FEACE0200230021CDF81CA0E4
:100D8000CDE90B641392CDF8248000BF0498BB42D8
:100D900008440693059080F0D4804F008A0001EB50
:100DA00041010298490041F0010330F9111030F976
:100DB0001330119142F0010130F91110129310918A
:100DC00030F91210139A0F9147F0010130F9111008
:100DD00030F917000E910D90DDE9060A18900AEB24
:100DE00002003AF9027CBAF9006030F9025C3AF983
:100DF0003E301790EA1998197F1B02F30F0200F397
:100E00000F0007F30F01F31A159103F30F01169169
:100E10000A990AEB08040AEB010C3CF9023C45462E
:100E200034F9028C71463AF92EE03AF905B04344A0
:100E3000A146149403F30F030BEB0E04884604F34E
:100E40000F04110442F34E0243F34E072E4607EB04
:100E50006141070440F34E0044F34E0505EB67473C
:100E600049082AF8021C7908AAF8001019040F9FF3
:100E7000A2EB61412204109BA0EB624001FB07F250
:100E800000FB0322784301FB1300110C000C3CF91A
:100E9000022C2CF8021C3AF928102AF8280039F9FB
:100EA000020C3AF90630101AC91ADDF830B000F316
:100EB0000F0001F30F01159B0F041A0443F34E03B7
:100EC00041F34E01169E01EB624146F34E050204CA
:100ED00040F34E00DDF838E0A5EB6242DDF83490D7
:100EE00002FB0EF5A3EB6743370401FB0955DDF860
:100EF00048C0119C02FB09F200EB674001FB1E2178
:100F00002F0C00FB0CF5604303FB0455179E03FBFD
:100F10001C00090C2AF83810099926F8027C2F0CBD
:100F2000149D000C2AF80100189825F8027C0B9EED
:100F3000089F139A5844C6468846B842B244FFF404
:100F40004DAF0798069B043007900398013305992D
:100F500083427FF61BAF0198DDF800A050284FEACE
:100F600090014FEA9E00BFF4F3AE01E0DDF800A06F
:100F7000A7EB0E0113914FEA8E01129100EB400195
:100F800089001191DDF844908100C0004FF0000B02
:100F900010911890189A3AF9020C0AEB0201BAF96A
:100FA0000040179131F9021C3AF902700A183B19F6
:100FB000401A02F30F0203F30F0300F30F00159022
:100FC000E01B00F30F00169010980AEB09060AEBDD
:100FD000000737F9025C36F9028C71463AF900E0F5
:100FE0003AF909C04544149605F30F050CEB0E04BD
:100FF0008E4604F30F04160442F34E0245F34E01ED
:1010000001EB66412AF8021C190443F34E0344F332
:101010004E0606EB6141AAF800102904A2EB6141DB
:101020002204A3EB6242149C37F9023C27F8021C0D
:101030003AF900102AF8002034F9022C3AF9097024
:101040009A1AC91B02F30F0201F30F011598F3441A
:10105000030440F34E0741F34E0606EB6343179833
:101060000904169EA7EB614120F8023C46F34E03AB
:1010700042F34E0724F8021C10041899A3EB6040B9
:101080002AF80100300407EB60402AF809001398A1
:101090008345129882447FF67DAF19B0BDE8F08F8A
:1010A00080B548F2042C4CF2042E89B2C0F6000C34
:1010B000C0F6000E0160C0E903CE0271B1F5007FF9
:1010C0004FF0FF0243710FDBB1F5006F18DB2ED03C
:1010D000B1F5005F31D0B1F5805F49D148F2A4117C
:1010E000C0F60001022240E07F2915DC20292AD029
:1010F00040293DD148F2C411C0F60001802234E0FD
:10110000B1F5007F26D0B1F5806F31D148F2E411FE
:10111000C0F60001082228E0802921D0B1F5807FA7
:1011200026D148F28411C0F6000120221DE048F2C9
:101130007411C0F60001042217E048F2D411C0F681
:101140000001012211E048F29411C0F600014FF4B1
:1011500080720AE048F2B411C0F60001102204E0E7
:1011600048F2F411C0F60001402282600022416181
:1011700050B280BD2DE9F04182B014460546476962
:10118000027900680E46012A4FEA50081BD1D5E9C2
:1011900002C22B69304641460094CDF804C000F0ED
:1011A00093F82A796B7938462146FFF77CF828684E
:1011B000B8B1002134F81120520024F81120013177
:1011C0008142F7D30DE06B7938463146FFF76BF873
:1011D000D5E902722B69304641460094019700F030
:1011E00003F802B0BDE8F0812DE9F04F83B0022989
:1011F0004FEA410700974DD3DDE90C75A1F1010BD2
:1012000007EBC104AF00A4F1020ABE1C002502973F
:10121000CDF804B000EB850702EB060E3EF902ECB8
:10122000B7F904C0B7F9067032F906800EFB0CF965
:1012300007FB0EFE991908FB0CEC00EB8B0E08FB6C
:10124000179930F92B7031F9024CBEF9021004FBEA
:10125000079833F906E001FB14C40EFB018C0EFB6A
:1012600007470C99ABF1010B01EB8504390CE180C8
:101270004FEA1C41A1802AF8021C0021A1EB174172
:10128000AAF80010029901350E440199AAF1040A46
:10129000A942BFD1B0F90010B0F902200C9B891A05
:1012A000009A490823F8121042F00101002223F8A5
:1012B0001120B0F90010B0F902005A80084440082B
:1012C000188003B0BDE8F08F2DE9F04FC9B3DDE918
:1012D00009C500244FEA850E022500BF5F1900EB07
:1012E000810930F921A037F902BCB9F902905F5F9A
:1012F00002EB05080BFB0AF607FB196609FB0BF965
:1013000030F904B038F9028C07FB0A99071908FB79
:101310000B6A565FB7F9027006FB0B9906FB07AA2A
:1013200007FB08F7A7EB09070CEB04063F0C7780D7
:101330004FEA1A462CF80460013904F1040475449C
:10134000CCD1BDE8F08F0000014800F048B90000A2
:101350002C08002070B5044600688168C943C9079D
:101360001CD1816821F00101816000F07DFD0546FE
:101370000FE000BF00F078FD401B022809D9A06AE9
:1013800040F01000A062E06A40F00100E06201203D
:1013900070BD20688068C043C007EBD0002070BDDE
:1013A00010B50146406A826A12F0500F05D0006AFB
:1013B000026BBDE8104008461047816A41F4007195
:1013C000816201688968C1F3424107290CD1017B20
:1013D00051B9816A21F480718162816AC90403D4A0
:1013E000816A41F00101816200F0F0F810BD10B592
:1013F000406A816A41F040018162C16A41F00401A2
:10140000C16200F0EBF810BD10B5406A00F0E0F8E2
:1014100010BD0000F8B500260446009600688168FB
:10142000C943C90728D0816841F001018160134890
:1014300013490068B0FBF1F000E0401E0090002866
:10144000FBD100F011FD054611E000BF00F00CFDDE
:10145000401B02280BD9A06A40F01000A062E06A8D
:1014600040F00100E06284F824600120F8BD2068AB
:101470008068C043C007E9D10020F8BD20000020EB
:1014800040420F00FEE70000014800F0CFBA000024
:101490005C080020014800F0C9BA0000F8080020EC
:1014A00030B590F840500124AC40C56B6C600468C6
:1014B00063604368102B036803D099600068C260C2
:1014C00030BD9A600068C16030BD7047704770479A
:1014D000F8B50024009490F824202546012A12D063
:1014E000012280F824204A681F23072A0DD20668AB
:1014F000776B521E02EB820293409F430B6893402E
:101500001F43776319E00220F8BD06680D2A0AD24E
:10151000376BD21F02EB820293409F430B689340CC
:101520001F43376309E0F76A0D3A02EB82029340EA
:101530009F430B6893401F43F7620A6807230668BE
:101540000A2A0AD3F7680A3A02EB420293409F4301
:101550008B6893401F43F76008E0376902EB420253
:1015600093409F438B6893401F4337610A68102A5A
:1015700001D0112A20D1124B02689A4217D19368E8
:101580001B0219D4936843F400039360096810297F
:1015900012D10C490C4A0968B1FBF2F101EB81014F
:1015A000490000E0491E00910029FBD104E0816A56
:1015B00041F020018162012480F824502046F8BDCA
:1015C000002401402000002040420F00704700002E
:1015D0000421014800F03CBC00080140704710B5F0
:1015E000044600684168890626D50168890723D525
:1015F000A16AC90603D4A16A41F40071A16281689D
:10160000C1F34241072910D1217B71B9416821F012
:1016100020014160A06A20F48070A062A06AC0042A
:1016200003D4A06A40F00100A0622046FFF7CEFF7D
:1016300021686FF0120008602068416809062ED505
:10164000016849072BD5A16AC90603D4A16A41F4F0
:101650000051A1628168C1F30231072909D04168B4
:10166000490515D48168C1F34241072910D1217B76
:1016700071B9416821F080014160A06A20F4805076
:10168000A062A06AC00503D4A06A40F00100A06275
:101690002046FFF71CFF21686FF00C0008602068EF
:1016A000416849060DD50068C0070AD0A06A40F419
:1016B0008030A062204600F093F821686FF00100AE
:1016C000086010BD2DE9F0414FF0000704003D46D1
:1016D0007ED0A06A002628B9E66284F824602046FD
:1016E00000F080F82046FFF735FEA16AC90600D455
:1016F00020B1A06A40F01000A06269E0A16A21F464
:10170000885141F00201A1626268E169237B0A43CA
:1017100047EA43010A43A1684FF48077B94209D0F0
:10172000012907D05FF0000194F814C0BCF1010F4B
:1017300002D00AE03946F7E7F3B1A36A43F0200389
:10174000A362E36A43F00103E3622368D3F804C0B1
:101750002CF4694C4CEA010CC3F804C021688B6876
:10176000DFF870C003EA0C0313438B60A168B94231
:101770000BD0012909D00CE0DFF85CC0A3690CEBA9
:1017800043330B4343F40061DFE7218A0D05A5F5E0
:1017900080152168CB6A23F470032B43CB62216848
:1017A00089680E4B1940914208D1E662A16A21F086
:1017B000020141F00101A162BDE8F081A06A20F0C0
:1017C000020040F01000A062E06A40F00100E06218
:1017D0000120F1E7FDF7E1FF00E0FFFFFE0E1FFF34
:1017E0007047000070B586B0002605460096019649
:1017F0000296039600681F49884238D11E498869BD
:1018000040F400708861886900F400700490886971
:1018100040F0080088618869694600F0080004907B
:101820000120009003200190144800F021FA154C8B
:101830001348C4E900068020C4E90260400020612A
:10184000800060612020A0614FF44050E06120469C
:1018500000F096F908B1FFF739FE2C62002211461C
:101860001220656200F06CFB122000F05BFB06B0FA
:1018700070BD00000024014000100240000C014037
:10188000080002405C0800202DE9F0478946044624
:101890003B4900683B4F0E1D9046884201D0B8423C
:1018A00007D1306810F4702F03D001252846BDE819
:1018B000F08794F8240001280CD0012084F824003B
:1018C0002046FFF7A7FD05004FF0000004D084F884
:1018D0002400EBE70220EAE7A16A40F601629143A7
:1018E00041F48071A1622168B94218D1326812F4C2
:1018F000702F14D0A16A41F48011A16231684905AA
:1019000005D5A16A21F4005141F48051A162A16A78
:10191000C9040AD5E16A21F00601E16206E0A26A83
:1019200022F48012A2624968E9E7E06284F82400A8
:10193000216A15488862216A1448C862216A1448DD
:10194000086321686FF0020008602068816841F434
:1019500080718160216843464A464C31206A00F01C
:101960003DF920688168C1F342410729816803D0AD
:1019700041F48011816099E741F4A001FAE7000089
:101980000024014000280140A113000809140008A8
:10199000EF13000810B590F821100024022903D09D
:1019A0000421816301243DE001680A6822F00E02EF
:1019B0000A6001680A6822F001020A601A4A016896
:1019C000914201D1012121E0174A1432914201D103
:1019D00010211BE0144A2832914201D1891515E0EB
:1019E000114A3C32914201D189140FE00E4A503223
:1019F000914202D14FF4803108E00B4A64329142A7
:101A000002D14FF4801101E04FF08071064A083A8C
:101A10005160012180F82110002180F82010416BD5
:101A200001B18847204610BD080002402DE9F05F53
:101A3000C16B0C6801680B68D0F840C0042202FA40
:101A40000CF2494DDFF824A1494E4A4FDFF828B186
:101A5000DFF828E122422CD05A072AD50A689206DC
:101A600003D40A6822F004020A600168A94201D185
:101A7000042219E0514501D1402215E0B14202D1C2
:101A80004FF4806210E0B94202D14FF480420BE083
:101A9000594502D14FF4802206E0714502D14FF43E
:101AA000800201E04FF080622F4908394A60C16A24
:101AB0003BE04FF0020808FA0CF818EA040F4FF068
:101AC00000094FF0010235D05FEA837832D50B6808
:101AD0009B0605D40B6823F00A030B6080F82120D5
:101AE0000168A94201D1022219E0514501D1202209
:101AF00015E0B14202D14FF4007210E0B94202D1B8
:101B00004FF400520BE0594502D14FF4003206E089
:101B1000714502D14FF4001201E04FF000721249FA
:101B200008394A6080F82090816A00291AD0BDE8FF
:101B3000F05F0847082505FA0CF5254212D01B076F
:101B400010D50B6823F00E030B6090F84010C36BA8
:101B500002FA01F15960826380F8212080F8209018
:101B6000016BE2E7BDE8F09F080002401C00024064
:101B70003000024044000240580002406C00024025
:101B800030B528B308C8134914221944B1FBF2F147
:101B90008900C16310498163022141771A6843F6C5
:101BA000F0718A43D0E900142143D0E902452C4367
:101BB000214304692143446921438469214311433A
:101BC000196000214163012242770177084630BD48
:101BD000012030BDF8FFFDBF0000024070B5044693
:101BE00090F82000002501280CD0012084F8200066
:101BF00094F821600020012E06D084F820000225F0
:101C0000284670BD022070BD022684F82160A063C2
:101C10002068066826F0010606602046FFF740FCB3
:101C2000E06A00282068016802D041F00E0106E059
:101C300021F0040101602068016841F00A0101609F
:101C40002068016841F001010160D9E770B50446E0
:101C500000F00AF90546601C02D0044800780444EC
:101C600000F002F9401BA042FAD370BD140000201E
:101C70002DE9F84FDFF8B891002409F1040A0AF1C0
:101C8000040B23460F270BF1040EC9E00125A540E4
:101C90002A40AA427DD1674ED1F804C0ACEB0608B9
:101CA000B44532D014DCBCF1030F3AD009DCBCF1EE
:101CB000000F2AD0BCF1010F1CD0BCF1020F31D1B2
:101CC0001DE0BCF1110F17D0BCF1120F2AD119E0A1
:101CD000B8F5881F19D006DCB8F5803F15D0B8F5E7
:101CE000801F1FD111E0B8F5001F0ED0B8F5041FFA
:101CF00018D10AE0CB6815E0CB681B1D12E0CB6859
:101D000008330FE0CB680C330CE08B682BB1012B50
:101D10004FF0080303D0456104E0042302E00561AD
:101D200000E00023FF2A01D8064601E000F1040686
:101D30004FEA840501D9A5F12005D6F8008007FAFD
:101D400005FC28EA0C0803FA05F548EA0508C6F878
:101D500000804D68ED0062D5374DAE6946F0010652
:101D6000AE61AD6924F0030605F001050095334D21
:101D700006EB050CDCF80850A607360F07FA06F844
:101D800025EA0805DFF8B880404503D14FF0000888
:101D900017E044E0DFF8AC80404502D14FF0010885
:101DA0000FE0DFF8A480404502D14FF0020808E0C0
:101DB000DFF89880404502D14FF0030801E04FF072
:101DC000040808FA06F848EA0508CCF808804D68C7
:101DD000D9F80060ED034D4601D5164300E0964367
:101DE0002E604D68DAF80060AD03554601D5164304
:101DF00000E096432E604D68DBF80060ED025D4622
:101E000001D5164300E096432E604D68DEF8006071
:101E1000AD02754601D5164300E096432E60641C62
:101E20000D682A46E5407FF431AFBDE8F88F000029
:101E300000040140000011100010024000000140A9
:101E400000080140000C0140001001400014014056
:101E5000C2680A4201D041617047016170470AB10E
:101E6000016170470904FBE7014880687047000082
:101E70001400002002488168027811448160704794
:101E800014000020074810B5016841F010010160FE
:101E9000032000F075F8002000F006F800F024F8A8
:101EA000002010BD0020024070B50D4D04464FF4D7
:101EB0007A712878B1FBF0F00A490968B1FBF0F0BB
:101EC00000F062FD48B9102C07D200222146501EB6
:101ED00000F036F800206C6070BD012070BD00007D
:101EE00014000020200000200C4808B5816941F052
:101EF00001018161816901F001010091C16941F035
:101F00008051C161C06900F0805000900448416870
:101F100021F0E06141F08061416008BD00100240A5
:101F200000000140002809DB00F01F020121914060
:101F30004009800000F1E020C0F800117047000067
:101F4000F0B40E4B1B680C46C3F30223C3F1070524
:101F5000042D00D90425191D072901D2002300E012
:101F6000DB1E012606FA05F1491E214099409E40DC
:101F7000761E16403143F0BC01F04EBB0CED00E084
:101F8000064900F0070208684FF6FF03184040EAD0
:101F90000220034A10430860704700000CED00E087
:101FA0000000FA052DE9F84305460078354CC007D6
:101FB00054D0E0690026C00008D4E06940F08050A9
:101FC000E061E069012600F0805000902E48016831
:101FD000C90512D40168804641F480710160FFF7A1
:101FE00043FF074605E000BFFFF73EFFC01B642824
:101FF00023D8D8F80000C005F6D5206A10F4407048
:1020000021D0A98801F4407181421CD0206A1F4967
:10201000012220F440700A6000220A602062C0079A
:1020200011D0FFF721FF074641F2883808E000BFD2
:10203000FFF71AFFC11B414502D90320BDE8F88311
:10204000206A8007F4D5206A696820F4407008434C
:1020500020621EB1E06920F08050E061287880079E
:1020600005D56068A96820F440400843606028787E
:10207000C00605D56068E96820F480000843606008
:102080000020DBE7001002400070004040044242A4
:102090002DE9F0470F46050061D0434E306800F04F
:1020A0000700B84209D2306820F00700384330609A
:1020B000306800F00700B84251D128683B4C8107D6
:1020C00012D5400703D5606840F4E060606028786E
:1020D000000703D5606840F4605060606068A968DC
:1020E00020F0F000084360602878C00728D06868B6
:1020F000012810D02168022810D0890700292EDA83
:10210000616821F0030101436160FFF7ADFE804685
:1021100041F288390DE021688903EFE78901EDE795
:10212000FFF7A2FEA0EB0801494502D90320BDE854
:10213000F0876068696800F00C00B0EB810FEFD1A8
:10214000306800F00700B8420BD9306820F0070073
:1021500038433060306800F00700B84201D00120F9
:10216000E5E72878400705D56068E96820F4E06075
:10217000084360602878000706D56068296920F464
:10218000605040EAC100606000F018F86168084AD9
:10219000C1F30311515CC840064908600648006855
:1021A000FFF782FE0020C2E700200240001002403C
:1021B0006B430008200000201800002012A185B009
:1021C0000FC98DE80F0014A0144A006804905168EC
:1021D000134801F00C03042B10D0082B0ED1C1F3CF
:1021E0008343C9031DF803000AD5516804AAC1F34B
:1021F0004041515C0A4A5043B0FBF1F005B07047D2
:1022000008494843FAE700000203040506070809E5
:102210000A0B0C0D0E0F10100102000000100240FE
:1022200000127A0000093D002DE9F84F040070D03B
:102230002078C04DC00749D06868C0F381000128EC
:1022400007D06868C0F38100022809D16868C0031C
:1022500006D52868800339D560680028E7D035E0C6
:102260006068B0F5803F0BD010B1B0F5A02F11D051
:10227000286820F480302860286820F4802002E05C
:10228000286840F480302860606890B1FFF7ECFD6A
:1022900006460AE0286840F480202860F0E700BF86
:1022A000FFF7E2FD801B642873D828688003F7D508
:1022B0000CE0FFF7D9FD064605E000BFFFF7D4FDAF
:1022C000801B6428F0D828688003F7D420789A4EC1
:1022D00080074FF001094FF0000839D5686810F009
:1022E0000C0F07D06868C0F38100022809D1686824
:1022F000C00306D42868800714D52069012808D1B6
:1023000010E02069B0B1C6F80090FFF7ADFD0746B8
:1023100005E00AE1FFF7A8FDC01B0228C4D8286821
:102320008007F7D52868616920F0F80040EAC1000D
:1023300028600DE0C6F80080FFF796FD074604E030
:10234000FFF792FDC01B022823D828688007F7D426
:10235000207800072CD57948A169D9B1C0F8009040
:10236000FFF782FD074604E0FFF77EFDC01B022851
:102370000FD8686A8007F7D571484FF4FA510068A2
:10238000B0FBF1F0009000BF0098411E0091FAD21E
:102390000EE080E0C0F80080FFF766FD074604E02D
:1023A000FFF762FDC01B022875D8686A8007F7D462
:1023B0002078400760D5E8690027C00008D4E869A4
:1023C00040F08050E861E869012700F080500090FB
:1023D0005C480168C90513D40168834641F48071E3
:1023E0000160FFF741FD824606E000BFFFF73CFDBC
:1023F000A0EB0A0064284ED8DBF80000C005F5D534
:10240000E06801280AD008B1052813D0286A20F016
:1024100001002862286A20F0040002E0286A40F0E7
:1024200001002862E06841F2883B98B1FFF71CFD8B
:1024300082460BE0286A40F004002862EEE700BF05
:10244000FFF712FDA0EB0A0159455AD8286A800708
:10245000F6D50CE0FFF708FD824605E0FFF704FD26
:10246000A0EB0A0159454CD8286A8007F6D41FB161
:10247000E86920F08050E861E06988B36968C1F3D9
:102480008101022944D00228C6F8608004D0FFF7F9
:10249000EBFC044638E034E0FFF7E6FC074604E0D6
:1024A000FFF7E2FCC01B02282BD828688001F7D474
:1024B000206AB0F5803F05D16868A16820F400303B
:1024C00008436860D4E908010843696821F474117D
:1024D00008436860C6F86090FFF7C6FC044606E053
:1024E00025E000BFFFF7C0FC001B022809D82868C0
:1024F0008001F7D51BE000BFFFF7B6FC001B0228E8
:1025000002D90320BDE8F88F28688001F4D40EE0DA
:102510000128F7D06868226A00F48031914204D122
:10252000616A00F47010884201D00120EAE70020BF
:10253000E8E70000001002400000424280044242EE
:1025400020000020007000407047000038B50446AD
:10255000006842688168C9434B0606D5CB0704D1A1
:10256000D3435B0601D4216C05E08B0708D4D34329
:102570001B0605D4616C01B02046BDE83040084719
:102580008B0601D54B0646D4D3439B0643D44B065A
:102590000AD494F85130032B3ED0636D43F004030A
:1025A0006365C36883680093890609D4616D41F04F
:1025B0000101616581680091016821F040010160BD
:1025C000606D002827D02068416821F0E00141605B
:1025D000012084F85100900722D02068416821F042
:1025E00003014160104DE06C40B14563E06CFFF7C2
:1025F000D1F918B1606D40F040006065A06C002812
:1026000009D04563A06CFFF7C5F9002803D0606DC1
:1026100040F04000606538BDC1688068009038BDFA
:102620002046FFF791FF38BDD92E000870B5040091
:1026300005D00025A56294F8510010B106E00120F4
:1026400070BD84F85050204600F02EF8022084F827
:1026500051002068016821F040010160D4E90101C6
:102660000843D4E903121143084361690843218BED
:1026700001F400710843E1690843216A0843A16A33
:10268000084321680860A069042101EA104021681C
:1026900048602068C16921F40061C161656501205D
:1026A00084F85100002070BD70B586B00025064644
:1026B000009501950295039500682349884241D110
:1026C0002249886940F480508861886900F480500C
:1026D0000490886940F00400886188691C4C00F00F
:1026E00004000490A0200090022001900320039099
:1026F00069462046FFF7BCFA4020CDE9000569464F
:1027000020460295FFF7B4FA134C124820601020BF
:10271000C4E901058020C4E903054FF44050656118
:10272000C4E906502046FFF72BFA08B1FEF7CEFEAB
:10273000B4640022114623206662FFF701FC2320C7
:10274000FFF7F0FB06B070BD003001400010024002
:102750000008014030000240F80800202DE9F84F41
:10276000044690F8500000271D4616468946012869
:102770000DD04FF0010B84F850B0FFF775FB804689
:1027800094F85100BA46012804D002278EE00220B6
:10279000BDE8F88FB9F1000F7DD0002E7BD003206B
:1027A00084F85100C4F854A0C4F83090A686E68698
:1027B000C4F838A0A4F83CA0A4F83EA0C4F844A0F3
:1027C000C4F840A0A068B0F5004F04D120680168AB
:1027D00041F48041016020680168490603D4016822
:1027E00041F040010160E068B0F5006F606803D01F
:1027F00030B3012E24D040E008B1012E1CD1206B53
:1028000021680088C86006E020688168890709D5CA
:10281000216B0988C160206B801C2063E08E401E04
:10282000E08609E0FFF720FBA0EB0800A84202D3F6
:10283000681C01D031E07DB3E08E0028E4D11FE0B8
:10284000206B21680078087306E02068816889079A
:1028500009D5216B09780173206B401C2063E08E41
:10286000401EE08609E0FFF7FFFAA0EB0800A8424F
:1028700002D3681C01D010E075B1E08E0028E4D1CD
:1028800042462946204600F077FB08B120206065CB
:10289000A06820B107E008E0FFE7032706E0206812
:1028A000C16880680090606D00B1012784F851B064
:1028B00084F850A038466BE72DE9F041044690F8C3
:1028C00050000026012809D0012784F8507094F8A0
:1028D00051000025012804D0022649E00220BDE86D
:1028E000F08189B182B1032084F8510065652163CC
:1028F000A286E286A56365642564A587E587A0684E
:10290000B0F5004F02D006E0012631E020680168F2
:1029100041F480410160A16C1748C862A16C17485E
:102920008862A16C16480863A06C4563E38E226838
:10293000216B0C32A06CFFF751F938B1606D40F09B
:1029400010006065012684F8517011E0206801686C
:10295000490603D4016841F04001016020684168E4
:1029600041F0200141602068416841F0020141606E
:1029700084F850503046B2E70B2F0008152F00089E
:10298000E92E00087047704710B5401EB0F1807FF7
:1029900001D3012010BD4FF0E02460610F216017CA
:1029A00000F03AFE0020A06107202061002010BD49
:1029B0007047704770B590F83C20012A19D0012467
:1029C00000F83C4F0222427050F83C3C5A689D6827
:1029D00022F070060A684968324325F080052943D1
:1029E0005A6050F83C2C91604470002101700846F8
:1029F00070BD022070BD10B5040003D094F83D00F6
:102A000010B107E0012010BD002084F83C002046F2
:102A100000F00CF8022084F83D00211D206800F031
:102A20007BFD012084F83D00002010BD08B5006842
:102A30000B49884212D10B48C16941F00201C161C2
:102A4000C069002200F00200009011461D20FFF72F
:102A500077FABDE808401D20FFF764BA08BD000002
:102A600000040040001002400168CA6842F0010200
:102A7000CA600068816801F00701062903D0016877
:102A800041F0010101600020704770B5044690F8E4
:102A90003C00012817D0012584F83C50022084F81E
:102AA0003D002068826822F0770222F47F42826033
:102AB0000868502830D00DDC20284DD005DC98B3B4
:102AC00010283BD148E0022070BD302844D0402877
:102AD00034D139E0602828D0702806D0B0F5805F66
:102AE0002CD0B0F5005F29D10AE0CB68D1E90121F3
:102AF000206800F047FD2068816841F0770109E017
:102B0000CB68D1E90121206800F03CFD2068816894
:102B100041F48041816011E0CA684968206800F092
:102B200043FD5021206807E016E0CA684968206824
:102B300000F04BFD6021206800F02EFD84F83D5030
:102B4000002084F83C0070BDCA684968206800F025
:102B50002BFD40212068EFE7226801461046EBE795
:102B6000704770B50446006801694FF00005C9431D
:102B7000890715D4C168C943890711D4E91E0161C9
:102B800001202077206880698007204602D0FFF767
:102B9000E7FF04E000F098F8204600F096F825776B
:102BA00020680169C943490717D4C168C943490767
:102BB00013D46FF00401016102202077206880693E
:102BC00010F4407F204602D0FFF7CAFF04E000F077
:102BD0007BF8204600F079F8257720680169C94321
:102BE000090716D4C168C943090712D46FF0080158
:102BF0000161042020772068C0698007204602D048
:102C0000FFF7AEFF04E000F05FF8204600F05DF84B
:102C1000257720680169C943C90617D4C168C9432B
:102C2000C90613D46FF010010161082020772068D5
:102C3000C06910F4407F204602D0FFF791FF04E006
:102C400000F042F8204600F040F82577206801693E
:102C5000C943C90708D1C168C943C90704D1891E3E
:102C60000161204600F032F820680169C943090675
:102C700009D4C168C943090605D46FF08001016118
:102C80002046FFF795FE20680169C943490609D42B
:102C9000C168C943490605D46FF04001016120466F
:102CA00000F01AF820680169C94389060BD4C1688D
:102CB000C943890607D46FF0200101612046BDE8B1
:102CC0007040FFF776BE70BD70477047082101481D
:102CD000FFF7BEB8000801407047FEE73EB500218F
:102CE0001148009101910F4A0291026081600173C5
:102CF000017501244FF400220461C2614160FEF7B6
:102D0000E1FC08B1FEF7E2FB0820CDE90004022057
:102D1000029069460448FEF7DBFB002801D0FEF76D
:102D2000D5FB3EBD002401402C0800200D4808B50D
:102D3000416941F0010141614069002200F0010058
:102D4000009011460B20FFF7FBF80B20FFF7EAF885
:102D5000002211460D20FFF7F3F8BDE808400D20D2
:102D6000FFF7E0B8001002402DE9F04385B00024E1
:102D700025480094019402940394816941F0100164
:102D80008161816901F010010491816941F02001A4
:102D90008161816901F020010491816941F00401A0
:102DA0008161816901F004010491816941F00801A8
:102DB00081618069DFF8548000F0080004900022EF
:102DC0000D214046FFF74BF8DFF844904FF4407771
:102DD000002239464846FFF742F80D200125022619
:102DE000CDE90005CDE9024669464046FEF740FFC1
:102DF00000970396CDE9015469464846FEF738FF2F
:102E000005B0BDE8F083000000100240000801405A
:102E1000000C0140104810B50E4901604FF482715A
:102E2000416000218160C1604FF400720161C0E91E
:102E300005120822C0E90721416281620A21C162AC
:102E4000FFF7F4FB002803D0BDE81040FEF73EBBBF
:102E500010BD000000300140A008002010B586B071
:102E60000024174800940194029403940494134995
:102E70000594C0E9001440F2DB51C0E9024104614D
:102E80008461FFF7B8FD08B1FEF720FB4FF48050D6
:102E9000009069460A48FFF7F8FD08B1FEF716FBF7
:102EA0002020CDE9040404A90548FFF783FD00288C
:102EB00001D0FEF70BFB06B010BD0000000400407F
:102EC0003C090020FEE77047704700000148FFF70B
:102ED0003DBB0000A008002010B5406A0021C1875A
:102EE000C186FFF731FB10BD10B5406A01684A6822
:102EF00022F003024A60416D41F010014165012159
:102F000080F85110FFF720FB10BD10B5406AFFF7A5
:102F10003AFD10BD38B50546446AFEF7A5FF0246E6
:102F200028680068800623D42068416821F02001C9
:102F300041602068416821F002014160642120461F
:102F400000F01AF818B1606D40F020006065A068CC
:102F5000002118B92068C26880680090E1860120CD
:102F600084F85100606D18B12046FFF7EDFA38BDC6
:102F70002046FFF707FD38BD38B50B4600920446E2
:102F80000022802100F008F8002804D0606D40F095
:102F900020006065032038BD2DE9F0411D4617462D
:102FA0000E460446DDF8188008E0681C06D0FEF7DF
:102FB0005BFFA0EB0800A8420BD255B120688068E7
:102FC00036EA000030D00020B842EED10020BDE843
:102FD000F0812068416821F0E00141606068B0F54F
:102FE000827F0BD1A068B0F5004F02D0B0F5806FA2
:102FF00004D12068016821F040010160A06AB0F5A9
:10300000005F09D12068016821F400510160206847
:10301000016841F400510160012084F85100002052
:1030200084F850000320D2E70120CDE738B50B4DDE
:10303000B5F90640A04210DAB5F90450A9420CDAFD
:1030400085186D1EA54201DB221A12B2009392B2BE
:1030500089B280B2012300F063F838BD0800002077
:103060002DE9FE4F05461A480127DDF838B099468C
:10307000144688460760DFF85CA0DEB21FE0BAF9AC
:103080000630711999420DDBC9F3072101EB0803E2
:103090001FFA83F8BAF9040000254144814211DA8D
:1030A000202A0BD00D98CDE9010B0C9800904B46CF
:1030B0004146284600F062F9701985B2641C2278F6
:1030C000002ADCD10248001F0760BDE8FE8F000027
:1030D00014080140080000202DE9F04110F8015BC0
:1030E000044617E0207800F091F96078A41C00F005
:1030F000800730F0800604D03146204600F098F971
:1031000034443FB114F8010BFF2801D14FF4FA7099
:10311000FEF79CFD6D1EEDB2E4D2BDE8F08100002B
:103120002DE9F0471C462C4B1546089EB3F90620A6
:1031300090424EDAB3F9043099424ADA47197F1EB9
:10314000974201DB121A95B20A19521E9A4201DB0C
:103150005A1A94B2214B4FF00109C3F800900A1992
:10316000521ED3B24219521ED2B2C9B2C0B200F03E
:103170008FF81B49370A4FF40070F6B208606800F8
:10318000804600F0CDFC0546DFF858A016E000BFF1
:103190005FEA080004D42F542918801E4E70FAD517
:1031A0001FFA88F229460F48FFF786FB4FEA0A000C
:1031B00090F851100329FBD0641EA4B2002CE7D173
:1031C0000649091FC1F800902846BDE8F04700F005
:1031D000E9BBBDE8F08700000800002014080140AA
:1031E000100C0140A008002008B500900448818818
:1031F000C0888BB282B200210846FFF791FF08BD5C
:103200000800002070B586B000251D480095019586
:1032100002950395816941F0080181618069194E29
:1032200000F0080048F2013404902A462146304656
:10323000FEF715FE0220CDE90250009401246946F4
:1032400001943046FEF714FD0F48046085150D48C3
:10325000143005601420FEF7F9FC0A4810300560B0
:103260000A48FFF739FF09483B30FFF735FF0748A9
:103270004830FFF731FF0448001F046006B070BDFE
:1032800000100240000C014014080140F842000800
:10329000F8B504461D4616460F462A2000F0B6F83B
:1032A0002146104C00200090607801448DF80110F8
:1032B00030448DF803000421684600F0B9F82B2053
:1032C00000F0A4F8A07839188DF8011028448DF882
:1032D00003000421684600F0ABF82C2000F096F8BB
:1032E000F8BD0000080000202DE9F843214C2249D8
:1032F00000F0030020704FF00108C1F80080362074
:1033000000F084F821780025802604F10800A02729
:1033100031B101290CD0022914D003290CD11BE0B2
:1033200001784278C078114301438DF800100CE019
:10333000417812E06570A5700F49091FC1F800803F
:10334000BDE8F883C0788DF800000121684600F0E0
:103350006FF8E680A780EDE701788278C0781143A6
:1033600001438DF800100121684600F061F8E78004
:10337000A680DFE708000020140801400FB42DE903
:10338000FF5F4A1EC3F307263244D4B2DFB2421EA7
:10339000DDE913A93A44D2B2C9B2C0B22346FFF75D
:1033A00077FF00252CE010981299203800FB06507A
:1033B000002431F810804FEA1A2002900AF0FF0032
:1033C00001904FEA192009F0FF0B009015E000BFB3
:1033D00008FA04F0000406D502988DF80C00019854
:1033E0008DF80D0004E000988DF80C008DF80DB0FC
:1033F000022103A800F01CF8641CA742E8D86D1C49
:10340000AE42D0D8BDE8FF1F5DF814FB01B50649F8
:103410004FF4007008604FF0FF3301226946034803
:10342000FFF79CF908BD0000140C0140A008002023
:10343000084B10B54FF400721A608AB20146064874
:10344000FFF73AFA044800BF90F851100329FBD067
:1034500010BD0000100C0140A00800207047FEF7CE
:1034600009BD30B593B028216846FCF762FE1421EF
:103470000AA8FCF75EFE002401200F94109411941A
:10348000010412948DE8130004904FF4E010CDE98C
:103490000810022507956846FEF7C6FE0F20CDE905
:1034A0000A056802CDE90C4002210AA80E94FEF735
:1034B000EFFDA80311900F950FA8FEF773FD13B051
:1034C00030BD00000D48016841F001010160416814
:1034D0000B4A1140416001680A4A114001600168CD
:1034E00021F480210160416821F4FE0141604FF424
:1034F0001F0181600449C00308607047001002404A
:103500000000FFF8FFFFF6FE08ED00E00148FFF7BE
:1035100028BB00003C090020F0B50268164B174C90
:10352000174D4FF08047984205D0B84203D0A042D3
:1035300001D0A84203D122F070064A683243984273
:1035400005D0B84203D0A04201D0A84203D122F452
:103550004074CA6822434C6922F080022243026010
:103560008A68C2620A688262984201D1096901636D
:1035700001214161F0BD0000002C01400004004029
:103580000008004010B5846842EA032224F47F4416
:103590000A432243826010BD826822F070020A430F
:1035A00042F007018160704710B5036A046A24F095
:1035B00001040462846924F0F00444EA021423F054
:1035C0000A020A438461026210BD10B5036A23F047
:1035D000100303628369046A23F4704343EA0232EE
:1035E00024F0A00343EA01118261016210BDFEE7ED
:1035F0000FB4084B10B504A902AA039800F02CF8E8
:10360000044602A9002000F0C8F9204610BC5DF86D
:1036100014FB00009B3900080907090E002804DB91
:1036200000F1E02080F80014704700F00F0000F176
:10363000E02080F8141D704702E008C8121F08C17E
:10364000002AFAD170477047002001E001C1121F23
:10365000002AFBD1704700002DE9FF4F8BB0884650
:103660000546002606E025280BD0DDE90D1290471F
:103670006D1C761C28780028F5D10FB03046BDE8C7
:10368000F08F0024A146A2460122AE4900E0044387
:1036900015F8013F203B02FA03F00842F7D12878E1
:1036A0002A2810D06FF02F022878A0F130010929C4
:1036B00015D809EB890102EB410144F0020400EB4B
:1036C00001096D1CF0E758F8041B5FEA010903D5F6
:1036D00044F40054C9F1000944F002046D1C287838
:1036E0002E2817D115F8010F44F004042A280ED013
:1036F0006FF02F022878A0F1300109290AD80AEBCF
:103700008A0102EB410100EB010A6D1CF2E758F857
:1037100004AB6D1C28786C280FD006DC4C2817D021
:1037200068280DD06A2814D104E0742810D07A28B3
:103730000FD10DE044F400140AE044F4801401E0D9
:1037400044F440146978814202D104F580146D1C60
:103750006D1C2878692865D006DC00288DD0632888
:1037600027D0642806D15DE06E2808D073282AD0BF
:10377000752877D0DDE90D129047761CE0E0C4F3A0
:103780000250022809D003280DD0D8F800100428D0
:103790000DD00E6008F10408D2E0D8F80010F2173E
:1037A000C1E90062F6E7D8F800100E80F2E70E706B
:1037B000F0E718F8041B8DF8001000208DF80100C8
:1037C000EB46012003E058F804BB4FF0FF306107DF
:1037D0004FF0000701D40AE07F1C57450DDA8742FD
:1037E000FADB1BF807100029F6D106E07F1C8742A0
:1037F000FCDB1BF807100029F8D1DDE90D23A9EB4C
:1038000007008146214600F0B1F83044C61904E0B3
:10381000DDE90D121BF8010B90477F1EF8D22146FF
:10382000484688E058F8040BC4F302514FF00A0BE5
:10383000032900D100B2042900D140B2002802DAE5
:1038400040422D2102E0210505D52B218DF82410C1
:10385000012104E006E0E10710D02021F6E708AFDF
:10386000089113E058F8040BC4F302514FF00A0B0F
:10387000032900D180B2042900D1C0B20021EEE7B3
:103880005946FCF761FC303107F8011D0028F7D1DB
:10389000ADEB070000F1200B600702D524F4803463
:1038A00001E04FF0010ADA4502DDAAEB0B0000E06F
:1038B0000020824600EB0B0108980144A9EB0100AF
:1038C0000A90E00306D4DDE90D2321460A9800F0B2
:1038D0004DF806444FF0000908E009A911F8090065
:1038E000DDE90D12904709F10109761C0899894517
:1038F000F3DBE0030CD5DDE90D2321460A9800F047
:1039000035F8064404E0DDE90D1230209047761CBE
:10391000BAF10001AAF1010AF5DC05E0DDE90D12BA
:1039200017F8010B9047761CBBF10001ABF1010BBE
:10393000F4DC0A982146DDE90D2300F005F8064481
:103940006D1C97E6092801002DE9F0410446002589
:103950001E461746880404D405E039462020B047A7
:103960006D1C641EF9D52846BDE8F0812DE9F041B3
:10397000044600251E469046C80301D5302700E0C6
:103980002027880404D505E041463846B0476D1C21
:10399000641EF9D52846BDE8F0810A68531C0B6007
:1039A0001070704710B5002821D0114B0022001F65
:1039B000196803E0814203D80A4649680029F9D111
:1039C00052B11368841A9C4204D1006818441060F4
:1039D000104602E0506000E0186039B102680B1A2E
:1039E000934203D10B681A4402604968416010BDDC
:1039F000240000208CB0FEF745FAFFF732FDFFF7F8
:103A0000B3F9FFF793F9FFF769F9FFF703FAFFF747
:103A100025FA4FF4807A524634493548FDF734FF91
:103A20003448FFF721F8FFF7EDFB0120FFF75CFCBE
:103A30000020FFF7D9FB00254FF478482E4FCDE941
:103A40000185786800902DA2294628463B68FFF73B
:103A500007FBDFF898B02F4E2F4AADF82850002012
:103A60005946099531F81030DB0022F81030401C1F
:103A700080B2FF28F6D9012300225446514603A8FC
:103A8000FDF70EFB234A244903A8FDF773FB2246EA
:103A900020492148FCF780FB3580758009AB0AAAD4
:103AA00080211C48FCF77AFD0020FFF79DFB0024D5
:103AB0004FF6FF7936F914004B46421021B2002030
:103AC000FFF7B4FA641CA4B2802CF3D313A10BA8A3
:103AD000099AFFF78DFDCDE9018578680090642192
:103AE0000BAA08463B68FFF7BBFAB5E72C06002097
:103AF0002C0800203C090020000000205374617253
:103B000074696E67206D61696E206C6F6F702E2E08
:103B10002E0000002C0200202C0000202534640020
:103B2000F0B50B30154D20F007010024144A0FE0CA
:103B300003688B420BD38B4205D95E1A4318476842
:103B4000C3E9006700E04368136002C004E0021D9F
:103B500010680028ECD12046002802D1286808B15E
:103B60000020F0BD064A07481060074A121A22F0EA
:103B70000702C0E9002401202860D7E728000020C0
:103B80002400002084090020800B00200000000099
:103B90000000000000000000000000000000000025
:103BA00000100010001000100010001000000010A5
:103BB000000000000028002800280000000000008D
:103BC000000000000000000000240024007C00240D
:103BD0000048007C00480048000000000038005405
:103BE0000050003800140054005400380010000049
:103BF0000020005400580030002800540014000831
:103C000000000000001000280028001000340048C8
:103C100000480034000000000010001000100000F8
:103C2000000000000000000000000000000800107C
:103C300000200020002000200020002000100008AC
:103C40000020001000080008000800080008000814
:103C500000100020001000380010002800000000B4
:103C60000000000000000000000000000010001034
:103C7000007C0010001000000000000000000000A8
:103C80000000000000000000000000100010001004
:103C900000000000000000000000003800000000EC
:103CA0000000000000000000000000000000000014
:103CB00000000010000000000008000800100010C4
:103CC0000010001000200020000000000038004418
:103CD0000044005400440044004400380000000048
:103CE00000100030005000100010001000100010F4
:103CF00000000000003800440044000400080010E8
:103D00000020007C0000000000380044000400187F
:103D100000040004004400380000000000080018FF
:103D2000002800280048007C00080008000000006F
:103D3000007C00400040007800040004004400388B
:103D400000000000003800440040007800440044B7
:103D50000044003800000000007C0004000800104F
:103D60000010002000200020000000000038004467
:103D700000440038004400440044003800000000C3
:103D80000038004400440044003C00040044003873
:103D90000000000000000000001000000000000013
:103DA00000000010000000000000000000000010F3
:103DB00000000000000000100010001000000000D3
:103DC000000C003000400030000C0000000000003B
:103DD000000000000000007C0000007C00000000EB
:103DE000000000000000000000600018000400183F
:103DF00000600000000000000038004400040008DB
:103E00000010001000000010000000000038004406
:103E1000004C0054005C00400040003800000000EE
:103E200000100028002800280028007C00440044DE
:103E30000000000000780044004400780044004482
:103E400000440078000000000038004400400040BA
:103E500000400040004400380000000000700048AE
:103E6000004400440044004400480070000000008A
:103E7000007C00400040007C004000400040007C8E
:103E800000000000007C004000400078004000403E
:103E900000400040000000000038004400400040A6
:103EA000005C00440044003800000000004400446E
:103EB0000044007C00440044004400440000000032
:103EC0000038001000100010001000100010003822
:103ED00000000000000400040004000400040004CA
:103EE000004400380000000000440048005000601A
:103EF000005000480048004400000000004000401E
:103F000000400040004000400040007C00000000F5
:103F10000044006C006C0054004400440044004421
:103F20000000000000440064006400540054004C91
:103F3000004C0044000000000038004400440044ED
:103F400000440044004400380000000000780044B1
:103F500000440044007800400040004000000000A1
:103F60000038004400440044004400440054003839
:103F70000004000000780044004400440078004839
:103F800000480044000000000038004400400030B9
:103F9000000800040044003800000000007C00100D
:103FA00000100010001000100010001000000000B1
:103FB00000440044004400440044004400440038ED
:103FC00000000000004400440044002800280028AD
:103FD0000010001000000000004400440054005491
:103FE0000054006C00280028000000000044002855
:103FF00000280010001000280028004400000000E5
:104000000044004400280028001000100010001098
:1040100000000000007C00040008001000100020D8
:104020000040007C0000000000180010001000108C
:1040300000100010001000100010001800200020D8
:104040000010001000100010000800080000000020
:1040500000300010001000100010001000100010C0
:10406000001000300010002800280044000000006C
:104070000000000000000000000000000000000040
:104080000000000000000000000000FE0020001002
:104090000000000000000000000000000000000020
:1040A0000000000000380044003C0044004C003494
:1040B000000000000040004000580064004400443C
:1040C00000640058000000000000000000380044B8
:1040D00000400040004400380000000000040004DC
:1040E0000034004C00440044004C00340000000048
:1040F0000000000000380044007C0040004400380C
:1041000000000000000C0010007C001000100010E7
:104110000010001000000000000000000034004CFF
:1041200000440044004C003400040078004000408B
:1041300000580064004400440044004400000000B3
:10414000001000000070001000100010001000109F
:1041500000000000001000000070001000100010AF
:1041600000100010001000E0004000400048005027
:104170000060005000480044000000000070001083
:1041800000100010001000100010001000000000CF
:104190000000000000780054005400540054005403
:1041A00000000000000000000058006400440044CB
:1041B00000440044000000000000000000380044FB
:1041C00000440044004400380000000000000000EB
:1041D000005800640044004400640058004000405F
:1041E000000000000034004C00440044004C003447
:1041F000000400040000000000580064004000407B
:1042000000400040000000000000000000380044B2
:1042100000300008004400380000000000200020AA
:10422000007800200020002000200018000000007E
:10423000000000000044004400440044004C0034EE
:104240000000000000000000004400440028002896
:10425000002800100000000000000000005400547E
:104260000054006C0028002800000000000000003E
:104270000044002800100010002800440000000046
:104280000000000000440044002800280010001036
:104290000010006000000000007C000800100020FA
:1042A0000040007C0000000000180010001000100A
:1042B0000020002000100010001000180010001056
:1042C000001000100010001000100010001000106E
:1042D000003000100010001000080008001000104E
:1042E000001000300000000000000074004C0000CE
:1042F00000000000000000000F0180961180FFB157
:1043000003012C2DB203012C2DB306012C2D012C01
:104310002DB40107C003A20284C101C5C2020A0074
:10432000C3028A2AC4028AEEC5010E20003601C0EB
:104330003A0105022A040000007F2B040000007FE0
:1043400004E010021C07123732292D29252B3900D1
:10435000010310E110031D07062E2C292D2E2E37E8
:104360003F0000021013800A298064000000000052
:1043700000000001020304060708090008000010FD
:104380001000000818000018200000042800001485
:104390003000000C3800001C4000000248000012F1
:1043A0005000000A5800001A60000006680000165D
:1043B0007000000E7800001E8000000188000011CF
:1043C0009000000998000019A0000005A800001541
:1043D000B000000DB800001DC0000003C8000013AD
:1043E000D000000BD800001BE0000007E800001719
:1043F000F000000FF800001F080180101001800875
:104400001801801820018004280180143001800CDC
:104410003801801C40018002480180125001800A4E
:104420005801801A60018006680180167001800EB4
:104430007801801E880180119001800998018019FF
:10444000A0018005A8018015B001800DB801801D74
:10445000C0018003C8018013D001800BD801801BEC
:10446000E0018007E8018017F001800FF801801F4C
:1044700008024010100240081802401820024004B0
:10448000280240143002400C3802401C48024012FE
:104490005002400A5802401A600240066802401664
:1044A0007002400E7802401E8802401190024009BE
:1044B00098024019A0024005A8024015B002400D24
:1044C000B802401DC0024003C8024013D002400B96
:1044D000D802401BE0024007E8024017F002400FFC
:1044E000F802401F0803C0101003C0081803C018CA
:1044F0002003C0042803C0143003C00C3803C01CC0
:104500004803C0125003C00A5803C01A6003C00613
:104510006803C0167003C00E7803C01E8803C01164
:104520009003C0099803C019A003C005A803C015D3
:10453000B003C00DB803C01DC803C013D003C00B27
:10454000D803C01BE003C007E803C017F003C00F87
:10455000F803C01F080420101004200818042018B5
:10456000280420143004200C3804201C4804201295
:104570005004200A5804201A6004200668042016FB
:104580007004200E7804201E880420119004200955
:1045900098042019A0042005A8042015B004200DBB
:1045A000B804201DC8042013D004200BD804201BFD
:1045B000E0042007E8042017F004200FF804201F6F
:1045C0000805A0101005A0081805A0182805A014BB
:1045D0003005A00C3805A01C4805A0125005A00A03
:1045E0005805A01A6005A0066805A0167005A00E63
:1045F0007805A01E8805A0119005A0099805A019AE
:10460000A805A015B005A00DB805A01DC805A013EC
:10461000D005A00BD805A01BE005A007E805A01752
:10462000F005A00FF805A01F08066010100660082E
:1046300018066018280660143006600C3806601CE6
:10464000480660125006600A5806601A680660162E
:104650007006600E7806601E88066011900660097C
:1046600098066019A8066015B006600DB806601DB2
:10467000C8066013D006600BD806601BE006600712
:10468000E8066017F006600FF806601F0807E010E4
:104690001007E0081807E0182807E0143007E00CBE
:1046A0003807E01C4807E0125007E00A5807E01AF4
:1046B0006807E0167007E00E7807E01E8807E01133
:1046C0009007E0099807E019A807E015B007E00D8A
:1046D000B807E01DC807E013D007E00BD807E01BC0
:1046E000E807E017F007E00FF807E01F08081010D0
:1046F00018081018280810143008100C3808101C5E
:10470000480810125008100A5808101A68081016A5
:104710007008100E7808101E8808101190081009F3
:1047200098081019A8081015B008100DB808101D29
:10473000C8081013D008100BD808101BE808101771
:10474000F008100FF808101F0809901018099018A9
:10475000280990143009900C3809901C48099012CF
:104760005009900A5809901A680990167009900E1D
:104770007809901E8809901198099019A809901538
:10478000B009900DB809901DC8099013D009900B7D
:10479000D809901BE8099017F009900FF809901FAD
:1047A000080A5010180A5018280A5014300A500CE1
:1047B000380A501C480A5012580A501A680A5016F3
:1047C000700A500E780A501E880A5011980A501923
:1047D000A80A5015B00A500DB80A501DC80A501347
:1047E000D00A500BD80A501BE80A5017F00A500F95
:1047F000F80A501F080BD010180BD018280BD01433
:10480000300BD00C380BD01C480BD012580BD01AE0
:10481000680BD016700BD00E780BD01E880BD01101
:10482000980BD019A80BD015B00BD00DB80BD01D1C
:10483000C80BD013D80BD01BE80BD017F00BD00F40
:10484000F80BD01F080C3010180C3018280C30143E
:10485000380C301C480C3012580C301A680C3016CA
:10486000700C300E780C301E880C3011980C3019FA
:10487000A80C3015B00C300DB80C301DC80C30131E
:10488000D80C301BE80C3017F00C300FF80C301F30
:10489000080DB010180DB018280DB014380DB01C4C
:1048A000480DB012580DB01A680DB016700DB00E4C
:1048B000780DB01E880DB011980DB019A80DB01567
:1048C000B80DB01DC80DB013D80DB01BE80DB01752
:1048D000F00DB00FF80DB01F080E7010180E701804
:1048E000280E7014380E701C480E7012580E701A74
:1048F000680E7016780E701E880E7011980E701962
:10490000A80E7015B80E701DC80E7013D80E701B4F
:10491000E80E7017F00E700FF80E701F080FF010F1
:10492000180FF018280FF014380FF01C480FF01271
:10493000580FF01A680FF016780FF01E880FF0115C
:10494000980FF019A80FF015B80FF01DC80FF0134D
:10495000D80FF01BE80FF017F80FF01F1810081809
:10496000281008143810081C481008125810081A8B
:10497000681008167810081E881008119810081979
:10498000A8100815B810081DC8100813D810081B67
:10499000E8100817F810081F181188182811881433
:1049A0003811881C481188125811881A6811881605
:1049B0007811881E98118819A8118815B811881DBA
:1049C000C8118813D811881BE8118817F811881F9F
:1049D00018124818281248143812481C5812481A3D
:1049E000681248167812481E98124819A8124815DD
:1049F000B812481DC8124813D812481BE8124817AD
:104A0000F812481F1813C8182813C8143813C81CE4
:104A10005813C81A6813C8167813C81E9813C819F3
:104A2000A813C815B813C81DD813C81BE813C81796
:104A3000F813C81F181428183814281C5814281ADA
:104A4000681428167814281E98142819A8142815F4
:104A5000B814281DD814281BE8142817F814281F88
:104A60001815A8183815A81C5815A81A6815A816DE
:104A70007815A81E9815A819B815A81DD815A81B33
:104A8000E815A817F815A81F181668183816681C16
:104A90005816681A7816681E98166819B816681D90
:104AA000D816681BE8166817F816681F1817E81854
:104AB0003817E81C5817E81A7817E81E9817E819ED
:104AC000B817E81DD817E81BF817E81F3818181C86
:104AD0005818181A7818181E98181819B818181D88
:104AE000D818181BF818181F3819981C5819981A34
:104AF0007819981EB819981DD819981BF819981F7D
:104B0000381A581C781A581EB81A581DD81A581B2B
:104B1000F81A581F381BD81C781BD81EB81BD81D74
:104B2000F81BD81F781C381EB81C381DF81C381FFD
:104B3000781DB81EF81DB81FF81E781F0800000267
:104B400010000001180000032000800028008002EF
:104B500030008001380080034800400250004001CE
:104B6000580040036000C0006800C0027000C0012F
:104B70007800C003880020029000200198002003E4
:104B8000A800A002B000A001B800A003C800600205
:104B9000D0006001D8006003E800E002F000E0010E
:104BA000F800E00308011002180110032801900228
:104BB0003001900138019003480150025801500320
:104BC0006801D0027001D0017801D0038801300261
:104BD00098013003A801B002B801B003C801700207
:104BE000D8017003E801F002F801F003180208038D
:104BF0002802880238028803580248036802C80263
:104C00007802C80398022803B802A803D8026803F0
:104C1000F802E803380398037803D803080040003B
:104C200010002000180060002800500038007000BC
:104C30005800680008000020100000101800003024
:104C40002000000828000028300000183800003834
:104C500040000004480000245000001458000034B4
:104C60006000000C6800002C7000001C7800003C04
:104C7000800000028800002290000012980000329C
:104C8000A000000AA800002AB000001AB800003AEC
:104C9000C0000006C8000026D0000016D80000366C
:104CA000E000000EE800002EF000001EF800003EBC
:104CB0000801002110010011180100312001000934
:104CC0002801002930010019380100394001000590
:104CD0004801002550010015580100356001000D04
:104CE0006801002D7001001D7801003D8001000366
:104CF000880100239001001398010033A001000BEC
:104D0000A801002BB001001BB801003BC001000747
:104D1000C8010027D0010017D8010037E001000FBB
:104D2000E801002FF001001FF801003F0802802079
:104D3000100280101802803020028008280280288B
:104D400030028018380280384002800448028024F3
:104D500050028014580280346002800C6802802C5B
:104D60007002801C7802803C8802802290028012AF
:104D700098028032A002800AA802802AB002801A1B
:104D8000B802803AC0028006C8028026D00280168F
:104D9000D8028036E002800EE802802EF002801EEB
:104DA000F802803E0803802110038011180380312F
:104DB00020038009280380293003801938038039B3
:104DC0004003800548038025500380155803803533
:104DD0006003800D6803802D7003801D7803803D83
:104DE000880380239003801398038033A003800BF3
:104DF000A803802BB003801BB803803BC00380074F
:104E0000C8038027D0038017D8038037E003800FC2
:104E1000E803802FF003801FF803803F0804402040
:104E20001004401018044030200440082804402892
:104E300030044018380440384804402450044014DA
:104E4000580440346004400C6804402C7004401C3A
:104E50007804403C88044022900440129804403278
:104E6000A004400AA804402AB004401AB804403AFA
:104E7000C0044006C8044026D0044016D80440367A
:104E8000E004400EE804402EF004401EF804403ECA
:104E90000805402110054011180540312005400942
:104EA0002805402930054019380540394805402576
:104EB00050054015580540356005400D6805402DEA
:104EC0007005401D7805403D88054023900540133E
:104ED00098054033A005400BA805402BB005401BAA
:104EE000B805403BC0054007C8054027D00540171E
:104EF000D8054037E005400FE805402FF005401F7A
:104F0000F805403F0806C0201006C0101806C03043
:104F10002006C0082806C0283006C0183806C03849
:104F20004806C0245006C0145806C0346006C00CA1
:104F30006806C02C7006C01C7806C03C8806C022DB
:104F40009006C0129806C032A006C00AA806C02A61
:104F5000B006C01AB806C03AC806C026D006C016A9
:104F6000D806C036E006C00EE806C02EF006C01E09
:104F7000F806C03E0807C0211007C0111807C0314D
:104F80002007C0092807C0293007C0193807C039D1
:104F90004807C0255007C0155807C0356007C00D29
:104FA0006807C02D7007C01D7807C03D8807C02363
:104FB0009007C0139807C033A007C00BA807C02BE9
:104FC000B007C01BB807C03BC807C027D007C01731
:104FD000D807C037E007C00FE807C02FF007C01F91
:104FE000F807C03F080820201008201018082030BB
:104FF000280820283008201838082038480820249D
:1050000050082014580820346008200C6808202C10
:105010007008201C7808203C880820229008201264
:1050200098082032A008200AA808202AB008201AD0
:10503000B808203AC8082026D0082016D8082036FC
:10504000E008200EE808202EF008201EF808203E78
:1050500008092021100920111809203128092029C8
:105060003009201938092039480920255009201510
:10507000580920356009200D6809202D7009201D70
:105080007809203D880920239009201398092033AE
:10509000A009200BA809202BB009201BB809203B30
:1050A000C8092027D0092017D8092037E009200F88
:1050B000E809202FF009201FF809203F080AA02046
:1050C000100AA010180AA030280AA028300AA01838
:1050D000380AA038480AA024500AA014580AA0345C
:1050E000600AA00C680AA02C700AA01C780AA03CD8
:1050F000880AA022900AA012980AA032A80AA02A20
:10510000B00AA01AB80AA03AC80AA026D00AA01667
:10511000D80AA036E00AA00EE80AA02EF00AA01EC7
:10512000F80AA03E080BA021100BA011180BA0310B
:10513000280BA029300BA019380BA039480BA0254B
:10514000500BA015580BA035600BA00D680BA02DBF
:10515000700BA01D780BA03D880BA023900BA01313
:10516000980BA033A80BA02BB00BA01BB80BA03B37
:10517000C80BA027D00BA017D80BA037E00BA00FAF
:10518000E80BA02FF00BA01FF80BA03F080C60202D
:10519000100C6010180C6030280C6028300C60185F
:1051A000380C6038480C6024500C6014580C603483
:1051B000680C602C700C601C780C603C880C6022C1
:1051C000900C6012980C6032A80C602AB00C601A27
:1051D000B80C603AC80C6026D00C6016D80C60364B
:1051E000E00C600EE80C602EF00C601EF80C603EC7
:1051F000080D6021100D6011180D6031280D602917
:10520000300D6019380D6039480D6025500D60155E
:10521000580D6035680D602D700D601D780D603D76
:10522000880D6023900D6013980D6033A80D602BDE
:10523000B00D601BB80D603BC80D6027D00D601726
:10524000D80D6037E00D600FE80D602FF00D601F86
:10525000F80D603F080EE020100EE010180EE03050
:10526000280EE028300EE018380EE038480EE02412
:10527000500EE014580EE034680EE02C700EE01C66
:10528000780EE03C880EE022900EE012980EE0329C
:10529000A80EE02AB00EE01AB80EE03AC80EE026DA
:1052A000D00EE016D80EE036E80EE02EF00EE01E2E
:1052B000F80EE03E080FE021100FE011180FE0316A
:1052C000280FE029300FE019380FE039480FE025AA
:1052D000500FE015580FE035680FE02D700FE01DFE
:1052E000780FE03D880FE023900FE013980FE03334
:1052F000A80FE02BB00FE01BB80FE03BC80FE02772
:10530000D00FE017D80FE037E80FE02FF00FE01FC5
:10531000F80FE03F08101020181010302810102847
:105320003010101838101038481010245010101475
:10533000581010346810102C7010101C7810103C8D
:10534000881010229010101298101032A810102AF5
:10535000B010101AB810103AC8101026D01010163D
:10536000D8101036E810102EF010101EF810103E55
:10537000081110211811103128111029301110199D
:1053800038111039481110255011101558111035C9
:105390006811102D7011101D7811103D8811102307
:1053A0009011101398111033A811102BB011101B6D
:1053B000B811103BC8111027D0111017D811103791
:1053C000E811102FF011101FF811103F0812902053
:1053D00018129030281290283012901838129038F5
:1053E0004812902450129014581290346812902C45
:1053F0007012901C7812903C881290229812903271
:10540000A812902AB012901AB812903AC812902698
:10541000D0129016D8129036E812902EF012901EEC
:10542000F812903E081390211813903128139029F8
:105430003013901938139039481390255013901554
:10544000581390356813902D7013901D7813903D6C
:105450008813902398139033A813902BB013901BAC
:10546000B813903BC8139027D0139017D8139037D8
:10547000E813902FF013901FF813903F081450205A
:10548000181450302814502830145018381450383C
:1054900048145024581450346814502C7014501C64
:1054A0007814503C8814502298145032A814502A72
:1054B000B014501AB814503AC8145026D0145016CC
:1054C000D8145036E814502EF014501EF814503EE4
:1054D000081550211815503128155029301550192C
:1054E0003815503948155025581550356815502D28
:1054F0007015501D7815503D881550239815503360
:10550000A815502BB015501BB815503BC815502787
:10551000D0155017D8155037E815502FF015501FDB
:10552000F815503F0816D0201816D0302816D0286D
:105530003016D0183816D0384816D0245816D03423
:105540006816D02C7016D01C7816D03C8816D02245
:105550009816D032A816D02AB016D01AB816D03A5B
:10556000C816D026D816D036E816D02EF016D01E83
:10557000F816D03E0817D0211817D0312817D02997
:105580003017D0193817D0394817D0255817D035CB
:105590006817D02D7017D01D7817D03D8817D023ED
:1055A0009817D033A817D02BB017D01BB817D03B03
:1055B000C817D027D817D037E817D02FF017D01F2B
:1055C000F817D03F08183020181830302818302825
:1055D0003818303848183024581830346818302CAF
:1055E0007018301C7818303C8818302298183032E7
:1055F000A818302AB018301AB818303AC81830260F
:10560000D8183036E818302EF018301EF818303E12
:105610000819302118193031281930293819303932
:1056200048193025581930356819302D7019301D3A
:105630007819303D8819302398193033A819302B48
:10564000B019301BB819303BC8193027D81930377A
:10565000E819302FF019301FF819303F081AB02020
:10566000181AB030281AB028381AB038481AB0249E
:10567000581AB034681AB02C701AB01C781AB03CA2
:10568000881AB022981AB032A81AB02AB81AB03ABA
:10569000C81AB026D81AB036E81AB02EF01AB01EC2
:1056A000F81AB03E081BB021181BB031281BB029D6
:1056B000381BB039481BB025581BB035681BB02DBE
:1056C000701BB01D781BB03D881BB023981BB033F6
:1056D000A81BB02BB81BB03BC81BB027D81BB037DA
:1056E000E81BB02FF01BB01FF81BB03F081C702048
:1056F000181C7030281C7028381C7038481C702406
:10570000581C7034681C702C781C703C881C7022EB
:10571000981C7032A81C702AB81C703AC81C7026DD
:10572000D81C7036E81C702EF01C701EF81C703EE1
:10573000081D7021181D7031281D7029381D703901
:10574000481D7025581D7035681D702D781D703DE1
:10575000881D7023981D7033A81D702BB81D703BD9
:10576000C81D7027D81D7037E81D702FF01D701FE1
:10577000F81D703F081EF020181EF030281EF0287B
:10578000381EF038481EF024581EF034681EF02CE5
:10579000781EF03C881EF022981EF032A81EF02AD7
:1057A000B81EF03AC81EF026D81EF036E81EF02EBD
:1057B000F81EF03E081FF021181FF031281FF029B5
:1057C000381FF039481FF025581FF035681FF02D9D
:1057D000781FF03D881FF023981FF033A81FF02B8F
:1057E000B81FF03BC81FF027D81FF037E81FF02F75
:1057F000F81FF03F182008302820082838200838E3
:1058000048200824582008346820082C7820083CB8
:105810008820082298200832A820082AB820083AB0
:10582000C8200826D8200836E820082EF820083E90
:10583000182108312821082938210839482108254C
:10584000582108356821082D7821083D8821082332
:1058500098210833A821082BB821083BC821082724
:10586000D8210837E821082FF821083F182288306E
:1058700028228828382288384822882458228834C8
:105880006822882C7822883C98228832A822882A8C
:10589000B822883AC8228826D8228836E822882E5C
:1058A000F822883E1823883128238829382388390C
:1058B00048238825582388356823882D7823883DF8
:1058C00098238833A823882BB823883BC8238827AC
:1058D000D8238837E823882FF823883F18244830B6
:1058E0002824482838244838582448346824482C28
:1058F0007824483C98244832A824482AB824483AB6
:10590000C8244826D8244836E824482EF824483E9F
:10591000182548312825482938254839582548353B
:105920006825482D7825483D98254833A825482BDB
:10593000B825483BC8254827D8254837E825482FAB
:10594000F825483F1826C8302826C8283826C838E1
:105950005826C8346826C82C7826C83C9826C832F1
:10596000A826C82AB826C83AD826C836E826C82E97
:10597000F826C83E1827C8312827C8293827C8392B
:105980005827C8356827C82D7827C83D9827C833B9
:10599000A827C82BB827C83BD827C837E827C82F5F
:1059A000F827C83F1828283038282838582828349D
:1059B0006828282C7828283C98282832A828282AC3
:1059C000B828283AD8282836E828282EF828283E4B
:1059D0001829283138292839582928356829282DA7
:1059E0007829283D98292833A829282BB829283B2D
:1059F000D8292837E829282FF829283F182AA8303D
:105A0000382AA838582AA834682AA82C782AA83C0A
:105A1000982AA832B82AA83AD82AA836E82AA82E5E
:105A2000F82AA83E182BA831382BA839582BA835AE
:105A3000682BA82D782BA83D982BA833B82BA83B12
:105A4000D82BA837E82BA82FF82BA83F182C6830A4
:105A5000382C6838582C6834782C683C982C68327C
:105A6000B82C683AD82C6836E82C682EF82C683E9A
:105A7000182D6831382D6839582D6835782D683DD6
:105A8000982D6833B82D683BD82D6837E82D682FDE
:105A9000F82D683F182EE830382EE838582EE834B4
:105AA000782EE83C982EE832B82EE83AD82EE83620
:105AB000F82EE83E182FE831382FE839582FE8350E
:105AC000782FE83D982FE833B82FE83BD82FE837F8
:105AD000F82FE83F38301838583018347830183CF0
